:020000040800F2
:1000000050A20020D9060008E1040008E30400081B
:10001000E7040008EB040008EF04000800000000FB
:10002000000000000000000000000000F3040008D1
:10003000F50400080000000003930108852C000867
:10004000F3060008F3060008F3060008773D0008F1
:10005000F3060008F3060008F3060008F30600089C
:10006000F3060008F3060008F3060008F30600088C
:10007000F3060008F3060008F3060008F30600087C
:10008000F3060008F3060008F3060008F30600086C
:10009000F3060008F3060008F3060008F30600085C
:1000A000F3060008F3060008F3060008F30600084C
:1000B000F3060008F30600082D450008F3060008C3
:1000C000F3060008F3060008F3060008F30600082C
:1000D000F30600084F2E0008F3060008F306000898
:1000E0001F380008F3060008F3060008F3060008AE
:1000F000F3060008F3060008F3060008F3060008FC
:10010000F3060008F3060008F3060008F3060008EB
:10011000F3060008F3060008F3060008F3060008DB
:10012000F3060008F3060008F3060008F3060008CB
:1001300000F002F800F074F80AA090E8000C824485
:100140008344AAF10107DA4501D100F069F8AFF262
:10015000090EBAE80F0013F0010F18BFFB1A43F0A5
:10016000010318470C0705002C0705000A444FF04F
:10017000000C10F8013B13F0070408BF10F8014B06
:100180001D1108BF10F8015B641E05D010F8016B4B
:10019000641E01F8016BF9D113F0080F1EBF10F8AF
:1001A000014BAD1C0C1B09D16D1E58BF01F801CBD2
:1001B000FAD505E014F8016B01F8016B6D1EF9D555
:1001C0009142D6D37047000000230024002500266A
:1001D000103A28BF78C1FBD8520728BF30C148BFAA
:1001E0000B607047642919F08F81752919F08C8193
:1001F000782919F0C581632919F0ED84732919F064
:10020000F284002070471FB519F060FC0400002044
:10021000002119F03DFD401C60601FBD10B510BDF0
:1002200019F000FD1146FFF7EEFF00F0B7F819F0E6
:100230001EFD03B4FFF7F2FF03BC02F0ADFD0000AA
:1002400010B58AB00446022C33D17048407B6F4908
:10025000097BCDE900106D48C37A827A6CA102A8AF
:1002600019F0EEF802A970A019F0DEF86748407D99
:100270006649097DCDE900106448C37C827C6CA18D
:1002800002A819F0DDF802A967A019F0CDF85F48BF
:10029000407C5E49097CCDE900105C48C37B827BD1
:1002A00069A102A819F0CCF802A95FA019F0BCF866
:1002B00032E05648407B5549097BCDE90010534850
:1002C000C37A827A66A102A819F0BAF802A956A0E8
:1002D00019F0AAF84D48407D4C49097DCDE9001040
:1002E0004A48C37C827C64A102A819F0A9F802A93B
:1002F0004DA019F099F84548407C4449097CCDE966
:1003000000104248C37B827B4FA102A819F098F8E5
:1003100002A945A019F088F80AB010BD0FE03B48CB
:10032000807D30B13949887DFFF78AFFFF2018F0C2
:1003300021FE642300221146104618F015FFEEE757
:100340000EE05348006808B9012000E00020504941
:1003500008604FF4FA7300221146104618F004FFAB
:10036000EFE770B5044600BF17F032F818F0A2FFAF
:1003700005460923474A0021AFF23B0018F07AFBFB
:100380000A23454A0021AFF26B0018F073FBFF20EF
:1003900018F0F0FD284618F091FF70BD10B502F07E
:1003A0007DFC4FF4A06000F0B7F94FF4E13002F0AB
:1003B00002FD02F095FD02F0BBFD3848416848207F
:1003C0008847002004F03FFE16F0CDFE09E034A07F
:1003D00019F02AF84FF4966002F0B1FC35A019F03C
:1003E00023F805F0A7F80028F1D136A019F01CF881
:1003F00006F09CFA0B23394A0021AFF2990018F05D
:1004000039FB16F0CDFF002010BD000094880020BD
:1004100044484350204950203A25642E25642E2517
:10042000642E25640000000025730D0A0000000002
:1004300044484350204757203A25642E25642E25F2
:10044000642E2564000000004E4554204D41534B5E
:100450003A25642E25642E25642E256400000000B4
:100460005374617469632049503A25642E25642EC3
:1004700025642E256400000053746174696320476D
:10048000573A25642E25642E25642E25640000002D
:10049000AC8121421804002018060020940000209E
:1004A0004C57495020496E69742046616C696564F7
:1004B000210D0A005265747279696E672E2E2E0D19
:1004C0000A0000004C57495020496E69742053754A
:1004D0006363657373210D0A000000001808002093
:1004E000704700BFFEE700BFFEE700BFFEE700BFAA
:1004F000FEE77047704700000CB5002001900090A7
:100500006C48006840F480306A49086000BF694860
:10051000006800F4003000900198401C01900098A1
:1005200018B90198B0F5A06FF1D16248006800F4E5
:10053000003010B10120009001E0002000900098F0
:10054000012843D15C48006840F010005A49086017
:100550000846006820F0030008600846006840F084
:1005600002000860534840685249486008464068A5
:1005700048600846406840F480604860084640682B
:1005800020F47C1048600846406840F4E810486059
:100590000846006840F08070086000BF4548006869
:1005A00000F000700028F9D04248406820F00300B5
:1005B000404948600846406840F00200486000BF7B
:1005C0003C48406800F00C000828F9D10CBD10B57B
:1005D000FFF792FF10BD10B53648006840F00100EB
:1005E0003449086008464068344908403149486049
:1005F00008460068324908402E49086008460068ED
:1006000020F4802008600846406820F4FE0048601E
:100610004FF41F008860FFF7DAFF4FF000602949B0
:10062000086010BD10B5002100200022214B5B683E
:1006300003F00C0121B1042906D0082928D107E0D4
:10064000214B224C236027E01F4B204C236023E0EA
:10065000184B5B6803F47010164B5B6803F4803230
:10066000022303EB904022B9194B4343174C2360FC
:100670000DE0104B5B6803F4003323B1144B43438C
:10068000124C236003E0104B4343104C236003E003
:100690000D4B0E4C236000BF00BF064B5B68C3F3DD
:1006A00003130C4CE15C094B1B68CB40074C2360E7
:1006B00010BD000000100240002002400000FFF8C2
:1006C000FFFFF6FE08ED00E000127A0000000020B7
:1006D00000093D0004000020094880470948004700
:1006E000FEE7FEE7FEE7FEE7FEE7FEE7FEE7FEE7E2
:1006F000FEE7FEE704480549054A064B704700003F
:10070000D705000831010008509C002050A20020AD
:10071000509E0020509E002031490143314A116013
:10072000704770B5002100230F22C47804B32D4C0C
:10073000246804F4E064C4F5E064210AC1F1040310
:10074000CA40447804FA03F1847814402143090133
:10075000254C0678A155047804F01F050124AC400F
:1007600005786D11AD0005F1E025C5F8004109E0FF
:10077000047804F01F050124AC401C4D0678761166
:1007800045F8264070BD1A4A0A400243154B1B1F0C
:100790001A60704739B1134A121D12680243114B97
:1007A0001B1D1A6006E00F4A121D126882430D4B92
:1007B0001B1D1A607047042808D14FF0E021096919
:1007C00041F004014FF0E022116107E04FF0E02119
:1007D000096921F004014FF0E02211617047000027
:1007E0000000FA050CED00E000E400E080E100E02C
:1007F00080FFFF1FDF48006840F00100DD4908600E
:1008000008464068DC490840DA4948600846006804
:10081000DA490840D74908600846006820F480207B
:1008200008600846406820F4FE0048604FF41F004E
:1008300088607047CF49096821F48031CD4A116042
:100840001146096821F480211160B0F5803F03D082
:10085000B0F5802F0ED106E0C649096841F4803119
:10086000C44A116007E0C349096841F4A021C14AA4
:10087000116000E000BF00BF704710B501460022C4
:10088000002300204A11012A02D1BA4C236806E055
:10089000022A02D1B74C236A01E0B64C636A01F028
:1008A0001F02012494401C400CB1012000E00020F4
:1008B00010BD38B5002000900024002500BF312075
:1008C000FFF7DBFF05460098401C00900098B0F54C
:1008D000A06F01D0002DF2D03120FFF7CEFF08B17C
:1008E000012400E00024204638BD01460020A14A32
:1008F000106820F0F80040EAC10010607047A0497D
:1009000008607047024600209A4B586820F47C101B
:1009100042EA01031843974B5860704798490866AC
:10092000704701460020934A506820F003000843B6
:10093000506070478F48406800F00C0070470146D7
:1009400000208C4A506820F0F00008435060704747
:1009500001460020874A506820F4E0600843506058
:10096000704701460020834A506820F4605040EAF6
:10097000C1005060704729B17E4A527A02437D4BD4
:100980005A7204E07B4A527A82437A4B5A72704719
:100990007B49D8310860704701460020754A50688D
:1009A00020F440400843506070470021714A2032D3
:1009B0001170704A82F82010012802D004280AD150
:1009C00004E001216B4A2032117005E00521694ADB
:1009D0002032117000E000BF00BF70476949086015
:1009E00070476449096A0143624A11627047654968
:1009F00044390860704730B50021002200240023EC
:100A00005C4D6D6805F00C0121B1042905D0082961
:100A100023D105E05C4D056022E05B4D05601FE0E1
:100A2000544D6D6805F47012524D6D6805F48034B4
:100A3000022505EB92421CB9544D554305600BE06D
:100A40004C4D6D6805F400351DB1504D55430560A2
:100A500002E04D4D5543056002E04B4D056000BF7F
:100A600000BF444D6D6805F0F0010909484D6B5C0D
:100A70000568DD4045603F4D6D6805F4E061090A99
:100A8000434D6B5C4568DD4085603A4D6D6805F40B
:100A90006051C90A3E4D6B5C4568DD40C560354D0F
:100AA0006D6805F44041890B3A4D6B5CC568B5FB38
:100AB000F3F5056130BD29B12E4A526902432D4B31
:100AC0005A6104E02B4A526982432A4B5A617047AB
:100AD00029B1284A92690243264B9A6104E0254ACB
:100AE00092698243234B9A61704729B1214AD269A6
:100AF0000243204BDA6104E01E4AD26982431D4B57
:100B0000DA61704729B11B4AD2680243194BDA6097
:100B100004E0184AD2688243164BDA60704729B164
:100B2000144A12690243134B1A6104E0114A126914
:100B30008243104B1A617047124940390860704770
:100B40000F49C86470470B49C87170470948406A2B
:100B500040F0807007494862704701460020054A0E
:100B600092680A400AB1012000E000207047014964
:100B700088727047001002400000FFF8FFFFF6FE89
:100B8000000042428004424200127A0000093D0007
:100B9000140000202400002010B50446BE48844202
:100BA00008D101218014FFF7ADFF0021A014FFF749
:100BB000A9FF16E0B948844208D101210014FFF7CB
:100BC000AEFF00212014FFF7AAFF0AE0B4488442D8
:100BD00007D10121C013FFF7A2FF0021E013FFF7A7
:100BE0009EFF10BD10B50022028802F441520B880E
:100BF0004C8823438C882343CC8823430C8923438C
:100C00004C8923438C892343CC8923431A43028094
:100C1000838B4FF2FF74234083830B8A038210BDC2
:100C20002DE9F04F85B005460C464FF0000902272C
:100C30004FF000084FF0010B0026B246A88B4FF290
:100C400040010840A88302202884B5F81C90A068C1
:100C5000022801D100BF38E0A08810B94FF0010B85
:100C600001E04FF0020B8D48854200D100E000BF4B
:100C70006846FFF7C0FEDDF800A0E088B0F5007F11
:100C80000AD14FEA1A2000EB80004000A168B0FBB7
:100C9000F1F0401D86B20BE04FEA4B10BAFBF0F0CA
:100CA00000EB80004000A168B0FBF1F0401D86B26F
:100CB0000A20B6FBF0F606F00108A6EB0800C0F328
:100CC0004F074FF6FF7000EA0828022F01DBFF2FC5
:100CD00002DD02274FF00008E08840EA08003843B0
:100CE0002884A088A1890843618808432188084393
:100CF00040F4006040EA0909A5F81C9005B0BDE881
:100D0000F08F0021018041808180C180018141817B
:100D10008181C181072101827047002101804180CA
:100D20008180C1800221816000218181704721B1D1
:100D3000028842F04002028004E002884FF6BF734E
:100D40001A400280704721B1828B42F48062828314
:100D500004E0828B4FF6FF331A408283704730B530
:100D6000002400230C110125A540ABB21AB18588DF
:100D70001D43858002E085889D43858030BD1AB182
:100D800083880B43838002E083888B438380704792
:100D9000818170470146888970474FF6FF62914212
:100DA00004D0028842F48072028004E002884FF688
:100DB000FF631A400280704721B1828842F004022A
:100DC000828004E082884FF6FB731A40828070476D
:100DD00002884FF2FF731A40028002880A430280A1
:100DE0007047018841F480510180704721B1028829
:100DF00042F40052028004E002884DF6FF731A406C
:100E00000280704702460020012901D0108B00E0CB
:100E1000908A70470146088A7047B1F5804F04D127
:100E2000028842F48042028004E002884BF6FF739D
:100E30001A40028070470246002013890B400BB114
:100E4000012000E000207047CA4302817047F0B5DE
:100E50000246002000240023002501F00F07012690
:100E6000BE40B4B20B1101269E40B3B2968806EA8A
:100E700003051689264016B10DB1012000E00020BF
:100E8000F0BD10B5002201F00F040123A3409AB277
:100E9000D343038110BD0000003001400038004002
:100EA000003C004010B50446FB48844209D10121B2
:100EB0008803FFF727FE00214FF48040FFF722FE52
:100EC00032E0F648844209D101214804FFF727FEA9
:100ED00000214FF40030FFF722FE25E0F048844265
:100EE00009D101218804FFF71AFE00214FF4802068
:100EF000FFF715FE18E0EB48844209D10121C80430
:100F0000FFF70DFE00214FF40020FFF708FE0BE075
:100F1000E548844208D101210805FFF700FE0021C1
:100F20004FF48010FFF7FBFD10BD2DE9F04786B0B0
:100F300005460E460024A24600BFA1460027B08900
:100F400000B100BF2F462C8A4CF6FF700440F08899
:100F500004432C82AC894EF6F3100440B0883189EA
:100F60000843718908430443AC81AC8A4FF6FF40C3
:100F70000440B0890443AC8201A8FFF73CFDC64899
:100F8000874202D1DDF810A001E0DDF80CA0A889AD
:100F900000F4004040B10AEBCA0000EB0A103168CF
:100FA0004900B0FBF1F807E00AEBCA0000EB0A10B9
:100FB00031688900B0FBF1F86420B8FBF0F004015F
:100FC0002009642101FB1089A88900F4004040B188
:100FD000322000EBC900B0FBF1F000F00700044341
:100FE00008E0322000EB09106421B0FBF1F000F0C2
:100FF0000F0004432C8106B0BDE8F0874FF4165172
:10100000016000218180C18001810C21418100218A
:101010008181704710B502460020108A4FF2FF030D
:1010200018400B884C8823438C882343CC88234367
:101030001843108210BD0021018041808180C18051
:10104000704721B1828942F40052828104E0828992
:101050004DF6FF731A4082817047F0B503460024B5
:1010600000260025002040F66A17B94200D100BFD3
:101070001846C1F3421401F01F06012707FA06F5CE
:10108000012C01D10C3004E0022C01D1103000E021
:1010900014301AB107682F43076002E00768AF43B6
:1010A0000760F0BD1AB1838A0B43838202E0838A12
:1010B0008B4383827047028A4FF6F0731A40028294
:1010C000028A0A430282704782894FF2FF731A40F4
:1010D000828182890A438281704721B1828942F0EC
:1010E0000202828104E082894FF6FD731A408281F8
:1010F0007047028A4FF6DF731A400282028A0A435F
:101100000282704721B1028A42F48042028204E0E6
:10111000028A4BF6FF731A4002827047C1F308023D
:101120008280704701468888C0F308007047818933
:1011300041F0010181817047028BD2B20283028BA0
:1011400042EA012202837047028B02F47F4202834B
:10115000028B0A430283704721B1828A42F0200247
:10116000828204E0828A4FF6DF731A4082827047DF
:1011700021B1828A42F01002828204E0828A4FF614
:10118000EF731A408282704721B1828A42F00802CE
:10119000828204E0828A4FF6F7731A408282704797
:1011A00021B1828942F40042828103E08289C2F344
:1011B0000E028281704721B1828A42F400628282EB
:1011C00004E0828A4FF2FF731A4082827047828A5B
:1011D0004FF6FB731A408282828A0A4382827047EA
:1011E00021B1828A42F00202828204E0828A4FF6B2
:1011F000FD731A408282704702460020B1F5007FDD
:1012000000D100BF13880B400BB1012000E000208B
:10121000704701F40072B2F5007F00D100BFCA43ED
:101220000280704770B5024600240023002500208C
:1012300040F66A16B14200D100BFC1F3421501F079
:101240001F03012606FA03F3012D02D196893340CC
:1012500006E0022D02D1168A334001E0968A33401F
:101260000C12012606FA04F41688344013B10CB1AE
:10127000012000E0002070BD10B50022002340F6E0
:101280006A14A14200D100BF0A1201249440A3B203
:10129000DC43048010BD00000038014000440040E1
:1012A00000480040004C00400050004010B504468B
:1012B000CC48844208D101210420FFF723FC0021FF
:1012C0000420FFF71FFC46E0C748844208D10121F3
:1012D0000820FFF717FC00210820FFF713FC3AE075
:1012E000C248844208D101211020FFF70BFC0021E5
:1012F0001020FFF707FC2EE0BD48844208D10121F1
:101300002020FFF7FFFB00212020FFF7FBFB22E05E
:10131000B848844208D101214020FFF7F3FB0021A7
:101320004020FFF7EFFB16E0B348844208D10121CB
:101330008020FFF7E7FB00218020FFF7E3FB0AE0B6
:10134000AE48844207D101218015FFF7DBFB002165
:10135000A015FFF7D7FB10BD10B501210846FFF718
:10136000D1FB00210120FFF7CDFB10BD2DE9F0419D
:10137000024600250026002000230024002791F8C3
:1013800003C00CF00F0591F803C00CF0100CBCF179
:10139000000F03D091F802C04CEA050591F800C097
:1013A000BCF1000F31D0146800202BE04FF0010C8D
:1013B0000CFA00F3B1F800C00CEA03069E4220D1FB
:1013C00083004FF00F0C0CFA03F7BC4305FA03FC43
:1013D0004CEA040491F803C0BCF1280F06D14FF089
:1013E000010C0CFA00FCC2F814C00AE091F803C02A
:1013F000BCF1480F05D14FF0010C0CFA00FCC2F80B
:1014000010C0401C0828D1D31460B1F800C0BCF152
:10141000FF0F34DD546800202EE000F1080C4FF07F
:10142000010808FA0CF3B1F800C00CEA03069E426A
:1014300021D183004FF00F0C0CFA03F7BC4305FADF
:1014400003FC4CEA040491F803C0BCF1280F05D159
:1014500000F1080C08FA0CF8C2F8148091F803C0E7
:10146000BCF1480F07D100F1080C4FF0010808FA51
:101470000CF8C2F81080401C0828CED35460BDE898
:10148000F0814FF6FF710180022181700421C1704B
:1014900070470246002093680B400BB1012000E02A
:1014A000002070470146886880B2704702460020DD
:1014B000D3680B400BB1012000E0002070470146CB
:1014C000C86880B2704701617047416170470AB1D6
:1014D000016100E041617047C16070474FF48032A4
:1014E0000A43826181618261826982697047024632
:1014F0000020434B18684FF68073184040EA0210F2
:1015000008433F4B186070473E49C8617047F0B5CB
:101510000A46002300240021002500F00046B6F111
:10152000004F02D1364EF16901E0354E7168C0F3CB
:10153000034583B200F44016B6F5401F08D121F0F0
:1015400070612F4E766826F070662D4F7E6012E037
:1015500000F48016B6F5801F06D1032606FA05F4BE
:10156000A14341F0706106E0460D360103FA06F62C
:10157000B14341F0706122B1460D360103FA06F61F
:10158000314300F00046B6F1004F02D11C4EF1612C
:1015900001E01B4E7160F0BD30B500228B071C0FBF
:1015A0000F2303FA04F2164B08338C1053F824303F
:1015B0009343134C08348D1044F8253023468C1087
:1015C00053F824308C07240F00FA04F423430C4C06
:1015D00008348D1044F8253030BD0A49DC310860EC
:1015E0007047000000080140000C0140001001405D
:1015F0000014014000180140001C0140002001407F
:10160000000001400000204210B50446FE4884421C
:1016100008D10121C014FFF775FA0021E014FFF78B
:1016200071FAC4E0B4F1804F08D101210846FFF7F8
:1016300076FA00210120FFF772FAB8E0F3488442FD
:1016400008D101210220FFF76AFA00210220FFF7EA
:1016500066FAACE0EE48844208D101210420FFF78D
:101660005EFA00210420FFF75AFAA0E0E94884421C
:1016700008D101210820FFF752FA00210820FFF7C6
:101680004EFA94E0E448844208D101211020FFF78B
:1016900046FA00211020FFF742FA88E0DF48844232
:1016A00008D101212020FFF73AFA00212020FFF77E
:1016B00036FA7CE0DA48844208D101214014FFF771
:1016C00021FA00216014FFF71DFA70E0D54884422A
:1016D00009D10121C804FFF715FA00214FF40020B9
:1016E000FFF710FA63E0D048844209D101210805D0
:1016F000FFF708FA00214FF48010FFF703FA56E0D5
:10170000CA48844209D101214805FFF7FBF90021AD
:101710004FF40010FFF7F6F949E0C548844208D1BC
:1017200001214020FFF7FBF900214020FFF7F7F9E6
:101730003DE0C048844208D101218020FFF7EFF945
:1017400000218020FFF7EBF931E0BB48844208D14B
:1017500001218015FFF7E3F90021A015FFF7DFF95C
:1017600025E0B648844209D101210804FFF7CAF9EF
:1017700000214FF48030FFF7C5F918E0B0488442EB
:1017800009D101214804FFF7BDF900214FF40030D1
:10179000FFF7B8F90BE0AB48844208D10121880477
:1017A000FFF7B0F900214FF48020FFF7ABF910BD2F
:1017B00000220288944B98420ED0994B98420BD04D
:1017C000B0F1804F08D0914B984205D0904B984291
:1017D00002D0904B984204D14FF68F731A404B8839
:1017E0001A438D4B984207D08C4B984204D04FF649
:1017F000FF431A40CB881A4302808B8883850B886D
:101800000385814B98420BD0854B984208D08B4B77
:10181000984205D08A4B984202D08A4B984201D117
:101820000B7A038601238382704770B5002400225F
:101830000023058C4FF6FE7635400584028C8388A4
:10184000048B4FF68F752C40B51E2C400D882C4311
:10185000751E2A400D892A434D882A436A4DA842A5
:101860000BD06F4DA84208D0744DA84205D0744DDE
:10187000A84202D0734DA84213D14FF6F7752A4003
:101880004D892A434FF6FB752A408D882A434FF62F
:10189000FF652B404FF6FF552B408D892B43CD899B
:1018A0002B4383800483CD888586028470BD70B508
:1018B000002400220023058C4FF6EF763540058486
:1018C000028C8388048B48F6FF752C404FF6FF4549
:1018D0002C400D884FF6FF7606EA05252C434FF67F
:1018E000DF752A400D8906EA05152A434D8806EA68
:1018F00005152A43444DA84202D0494DA8421DD1A6
:101900004FF67F752A404D894FF6FF7606EA05159A
:101910002A434FF6BF752A408D8806EA05152A43EB
:101920004FF6FF352B404FF2FF752B408D8906EAAD
:1019300085052B43CD8906EA85052B4383800483E7
:10194000CD880587028470BD70B500240022002375
:10195000058C4FF6FF6635400584028C8388848BA6
:101960004FF68F752C404FF6FC752C400D882C439C
:101970004FF6FF552A400D894FF6FF7606EA0525FA
:101980002A434D8806EA05252A431F4DA84202D066
:10199000234DA8421DD14FF2FF752A404D894FF6C5
:1019A000FF7606EA05252A434FF6FF352A408D8843
:1019B00006EA05252A434EF6FF752B404DF6FF75C6
:1019C0002B408D8906EA05152B43CD8906EA0515BE
:1019D0002B4383808483CD888587028470BD70B556
:1019E000002200230024058C4EF6FF763540058446
:1019F000038C8488828B48F6FF752A404FF6FF459A
:101A00002A400D8820E00000002C01400004004026
:101A100000080040000C004000100040001400408E
:101A200000340140004C014000500140005401408E
:101A300000180040001C0040002000400040014011
:101A400000440140004801404FF6FF7606EA0525B4
:101A50002A434DF6FF752B400D8906EA05352B43C9
:101A60004D8806EA05352B43FA4DA84202D0FA4DBF
:101A7000A84208D14BF6FF752C408D894FF6FF76B2
:101A800006EA85152C4384808283CD88A0F84050D7
:101A9000038470BD828B4FF2FF331A408283828BA6
:101AA0004FF6FF7303EA01231A4382837047F0B5B0
:101AB0000C461546002200210026078C4EF6FF7CBE
:101AC00007EA0C070784828B018C4FF6FF7707EA41
:101AD000043640F6FF473A404FF6FF7707EA0527FE
:101AE0003A434FF6FF7707EA03373A43D94FB842F4
:101AF0000ED0D94FB8420BD0B0F1804F08D0D74F9D
:101B0000B84205D0D64FB84202D0D64FB84206D11F
:101B10004DF6FF77394046F48057394305E047F6E4
:101B2000FF57394044F48057394382830184F0BD24
:101B3000828B4FF6F3731A408283828B0A4382832F
:101B40007047F0B50C461546002200210026078C90
:101B50004FF6FF6C07EA0C070784828B018C4FF667
:101B6000FF7707EA04264FF60C773A404FF6FF77E7
:101B700007EA03172F433A43B64FB8420ED0B64F89
:101B8000B8420BD0B0F1804F08D0B44FB84205D066
:101B9000B34FB84202D0B34FB84206D14FF6FF5709
:101BA000394046F48077394305E04FF2FF5739401A
:101BB00044F48077394382830184F0BD028B4FF275
:101BC000FF331A400283028B4FF6FF7303EA0123AF
:101BD0001A4302837047F0B50C46154600220021D7
:101BE0000026078C4FF6EF7C07EA0C070784028B70
:101BF000018C4FF6FF7707EA041640F6FF473A409C
:101C00004FF6FF7707EA03373A434FF6FF7707EAC5
:101C100005273A438F4FB8420ED08F4FB8420BD0B2
:101C2000B0F1804F08D08D4FB84205D08C4FB842EC
:101C300002D08C4FB84206D14FF6DF77394046F0DC
:101C40001007394305E04FF65F77394044F010073D
:101C5000394302830184F0BD028B4FF6F3731A40BF
:101C60000283028B0A4302837047F0B50C46154687
:101C700000220021068C4FF6FE773E400684028B40
:101C8000018C4FF60C7632407E1C06EA03162E437A
:101C90003243704EB0420ED06F4EB0420BD0B0F116
:101CA000804F08D06D4EB04205D06D4EB04202D08C
:101CB0006C4EB04206D14FF6FD76314044F001063D
:101CC000314305E04FF6F576314044F001063143EB
:101CD00002830184F0BD70B505460C465D4885421F
:101CE0000ED05D4885420BD0B5F1804F08D05B48DF
:101CF000854205D05A48854202D05A48854200D1D3
:101D000000E000BF208850B92389A2886188284656
:101D1000FFF7ABFFE1882846FFF79EFF25E020880C
:101D200004280AD12389A28861882846FFF753FF37
:101D3000E1882846FFF742FF17E0208808280AD1EB
:101D40002389A28861882846FFF7FBFEE1882846A0
:101D5000FFF7EEFE09E02389A28861882846FFF795
:101D6000A6FEE1882846FFF795FE70BD2DE9F041FB
:101D700005460C4600260127608808B9022600E0C7
:101D80000026A088012801D1022700E00127208831
:101D9000A0B92389A28861882846FFF766FFE188F9
:101DA0002846FFF759FF23893A4631462846FFF770
:101DB00012FFE1882846FFF701FF13E02389A2887C
:101DC00061882846FFF707FFE1882846FFF7F6FEFF
:101DD00023893A4631462846FFF747FFE1882846DF
:101DE000FFF73AFFBDE8F0810A884B881A438B88D9
:101DF0001A43CB881A430B891A434B891A438B89A0
:101E00001A43A0F8442070474FF6FF7181800021EB
:101E10000180C180418001727047002101804180B2
:101E20008180C180018141818181C1817047002110
:101E300001804180012181800021C18001817047A2
:101E40000021018041808180C180018141818181A7
:101E500070470000002C01400034014000040040A5
:101E600000080040000C004021B1028842F001024D
:101E7000028004E002884FF6FE731A400280704729
:101E800031B1B0F8442042F40042A0F8442005E00B
:101E9000B0F84420C2F30E02A0F8442070471AB1F3
:101EA00083890B43838102E083898B43838170475D
:101EB0008182704741EA0203A0F8483070471AB1A6
:101EC00083890B43838102E083898B43838170473D
:101ED00001894FF6F8721140018170470A460021CE
:101EE00001894FF68F73194011430181704730B556
:101EF00004460D4629462046FFF7F0FF208940F0B2
:101F00000700208130BD2DE9F04104460D461646FC
:101F10001F46602D06D13B46012231462046FFF781
:101F20005AFE05E03B46012231462046FFF79DFE62
:101F300029462046FFF7D2FF208940F00700208184
:101F4000BDE8F08130B50C4600210189C9B24FF6D9
:101F5000FF7505EA0325154325432943018130BD5B
:101F60002DE9F04105460E461746984600244346A3
:101F70003A4631462846FFF7E5FF2C894FF6F870C0
:101F8000044044F007044FF68F70044044F070049E
:101F90002C81BDE8F081F0B504460D4616461F467B
:101FA0003B46324629462046FFF7CCFF208940F4C5
:101FB00080402081F0BD0185828270470A46002161
:101FC00001884FF68F731940114301807047F0B5B7
:101FD0000C4615461E460021002200230189028B73
:101FE000038C4FF6F877394021434FF6FC473A40CF
:101FF00040F201173A434FF6DD773B404FF6FF774B
:1020000007EA06172F433B43018102830384F0BD97
:102010000A460021018B4FF68F731940114301834B
:1020200070470A460021018B48F6FF7319404FF6AE
:10203000FF7303EA02231943018370470A46002114
:10204000818B4FF68F7319401143818370470A4685
:102050000021818B48F6FF7319404FF6FF7303EAA6
:10206000022319438183704721B1028842F0800224
:10207000028004E002884FF67F731A4002807047A6
:1020800021B1828842F00402828004E082884FF607
:10209000FB731A408280704721B1828842F00802A7
:1020A000828004E082884FF6F7731A40828070477E
:1020B00021B1828842F00102828004E082884FF6DA
:1020C000FE731A40828070470A460021018B4FF64A
:1020D000F77319401143018370470A460021018BB1
:1020E0004FF2FF7319404FF6FF7303EA02231943BF
:1020F000018370470A460021818B4FF6F773194020
:102100001143818370470A460021818B4FF2FF7390
:1021100019404FF6FF7303EA022319438183704786
:102120000A460021018B4FF6FB73194011430183CE
:1021300070470A460021018B4FF6FF3319404FF6D6
:10214000FF7303EA02231943018370470A46002103
:10215000818B4FF6FB7319401143818370470A4608
:102160000021818B4FF6FF3319404FF6FF7303EACE
:1021700002231943818370470A460021018B4FF6E1
:102180007F7319401143018370470A460021018B78
:10219000C1F30E014FF6FF7303EA022319430183D3
:1021A00070470A460021818B4FF67F731940114317
:1021B000818370470A460021818BC1F30E014FF6DF
:1021C000FF7303EA02231943818370470A46002103
:1021D000018C4FF6FD7319401143018470470A4684
:1021E0000021018C4FF6F7731940114301847047A9
:1021F0000A460021018C4FF6DF7319404FF6FF733A
:1022000003EA02131943018470470A460021018C36
:102210004FF67F7319404FF6FF7303EA0213194319
:10222000018470470A460021018C4FF6FF53194084
:102230004FF6FF7303EA02231943018470470A46ED
:102240000021018C4FF2FF7319404FF6FF7303EA30
:1022500002231943018470470A460021018C4DF680
:10226000FF7319404FF6FF7303EA023319430184E9
:10227000704730B5002301248C40A3B2048C9C43EA
:102280000484048C02FA01F5ADB22C43048430BD01
:1022900030B5002304248C40A3B2048C9C430484F6
:1022A000048C02FA01F5ADB22C43048430BD70B544
:1022B0000346002000241846183001258D40ACB29A
:1022C0001D8CA5431D8409B1082909D100EB6100CB
:1022D000056825F0700505600568154305600EE08A
:1022E0000D1FC5F34E052844056825F4E04505603B
:1022F00005684FF6FF7606EA02263543056070BD95
:1023000021B1028842F00202028004E002884FF606
:10231000FD731A400280704721B1028842F0040226
:10232000028004E002884FF6FB731A400280704777
:1023300021B1828842F08002828004E082884FF6D8
:102340007F731A408280704702884FF6F7731A40F5
:10235000028002880A430280704782884FF68F739A
:102360001A40828082880A438280704702894FF631
:10237000F8731A40028102890A4302817047028978
:102380004FF67F731A40028102890A430281704727
:1023900081847047818570478186704701877047C7
:1023A00081877047A0F84010704702884FF6FF43BE
:1023B0001A40028002880A43028070470146888ED4
:1023C00070470146088F70470146888F7047014665
:1023D000B1F8400070470146888C70470146088D6F
:1023E000704702460020138A0B400BB1012000E029
:1023F00000207047CA430282704730B50246002071
:1024000000230024158A05EA0103958905EA0104E1
:1024100013B10CB1012000E0002030BDCA4302829C
:1024200070470000002044490860091D0860091D2C
:102430000860091D086041483F4914310860704731
:1024400000213D498279002A3AD00A461268036881
:102450009A430B461A600A1D126803689A430B1DC3
:102460001A60027911440A6803681A430A60324A02
:102470000832126803689A432F4B08331A601A1DFA
:10248000126803689A432C4B0C331A604279102A65
:102490000ED11A1F126803681A43274B08331A60BB
:1024A0001A1D126803681A43234B0C331A600DE09F
:1024B0002149427911440A6803681A430A6005E019
:1024C000027911440A6803689A430A607047002140
:1024D000016001710C214171002181717047164921
:1024E000103109680143144A1032116070470146E7
:1024F0000020114A143212680A400AB1012000E09B
:10250000002070470C4914310860704701460020D4
:102510000022094B1B6803EA0102074B14331B68B6
:102520000B4013B10AB1012000E0002070470249BE
:10253000143108607047000000040140FFFF0F00E5
:1025400010B50446FA48844208D101214015FEF72F
:10255000D9FA00216015FEF7D5FA17E0F548844254
:1025600008D101210015FEF7CDFA00212015FEF754
:10257000C9FA0BE0F048844208D10121C803FEF7F4
:10258000C1FA00214FF40040FEF7BCFA10BD30B58F
:102590000246002000235068E84C20400D790C686A
:1025A00044EA0524204350609068E54C2040D1E97E
:1025B00002542C434D7944EA450420439060D06A8C
:1025C00020F470000C7C641EE4B2234340EA035004
:1025D000D06230BD00210160017141718160C16034
:1025E00001210174704721B1826842F001028260CA
:1025F00003E0826822F001028260704721B18268A4
:1026000042F48072826003E0826822F48072826009
:10261000704710B50023CBB21AB144681C43446024
:1026200002E044689C43446010BD816841F00801A9
:1026300081607047014600208A6802F008020AB1F2
:10264000012000E000207047816841F004018160B2
:102650007047014600208A6802F004020AB1012096
:1026600000E00020704721B1826842F4A00282603D
:1026700003E0826822F4A0028260704701460020D5
:102680008A6802F480020AB1012000E0002070474D
:1026900010B50A4600210023416821F46041531E11
:1026A00041EA4331416010BD21B1426842F4006209
:1026B000426003E0426822F4006242607047F0B575
:1026C00004460D4600200021092D11DDE068A5F12A
:1026D0000A0606EB4607072606FA07F18843A5F126
:1026E0000A0606EB460603FA06F10843E0600CE032
:1026F000206905EB4507072606FA07F1884305EB35
:10270000450603FA06F108432061072A0FDA606BD9
:10271000561E06EB86071F2606FA07F18843561E4B
:1027200006EB860605FA06F10843606322E00D2AEF
:102730000FDA206BD61F06EB86071F2606FA07F175
:102740008843D61F06EB860605FA06F10843206388
:1027500010E0E06AA2F10D0606EB86071F2606FAD6
:1027600007F18843A2F10D0606EB860605FA06F18D
:102770000843E062F0BD21B1826842F480128260B9
:1027800003E0826822F48012826070470146C86CC0
:1027900080B2704766484C300068704721B142688B
:1027A00042F48062426003E0426822F48062426048
:1027B000704721B1426842F48052426003E04268AF
:1027C00022F48052426070470A460021816821F459
:1027D000E04111438160704721B1826842F40042B8
:1027E000826003E0826822F400428260704721B177
:1027F000826842F40212826003E0826822F40212CC
:1028000082607047014600208A6802F400120AB113
:10281000012000E000207047F0B504461546002076
:1028200000220026092911DDE068A1F10A0707EB63
:10283000470C072707FA0CF29043A1F10A0707EBB0
:10284000470703FA07F21043E0600CE0206901EB50
:10285000410C072707FA0CF2904301EB410703FAFA
:1028600007F210432061A06BC0F30156EF1C06F184
:10287000010CA7EB0C0707EB870C1F2707FA0CF2DC
:102880009043EF1C06F1010CA7EB0C0707EB870741
:1028900001FA07F21043A063F0BD10B50A4600210B
:1028A0000023816B21F44011531E41EA03518163DF
:1028B00010BD08B5002300930090009B0B440093CB
:1028C000009B1A6008BD08B50246002000900092E7
:1028D00001F12800009B184400900098006880B225
:1028E00008BD0A4600214168164B1940114341605A
:1028F00070474162826270470A460021416821F0B8
:102900001F0111434160704740B10949083109680E
:1029100041F40001064A0832116007E00449083119
:10292000096821F40001024A083211607047000072
:102930000024014000280140003C0140FFFEF0FF60
:10294000FDF7F1FFFFFD3FFF0246002013680B403B
:102950000BB1012000E000207047CA4302607047BD
:1029600070B502460020002300240B125568CEB239
:1029700005EA060415681D4015B10CB1012000E000
:10298000002070BD00220A12D3430360704700008C
:1029900010B501210807FEF7C2F800214FF0805062
:1029A000FEF7BDF810BD2A49086270472849086142
:1029B000704701460020274A106820F0E0000843D5
:1029C000106070472249A0310860704710B5024678
:1029D0000020204B186820F00300104318601E4BA5
:1029E0001B6843F004031C4C2360012901D130BF54
:1029F00000E020BF184B1B6823F00403164C236033
:102A000010BD1448006840F00400124908600846F0
:102A1000006840F0020008600F48006840F00400C1
:102A20000D49086000BF00BF30BF7047014600205D
:102A3000084A52680A400AB1012000E000207047AD
:102A40000449096841EA8001024A116070470000A8
:102A500000000E420070004010ED00E029B1504A25
:102A6000128802434E4B1A8004E04D4A128882437A
:102A70004B4B1A8070474A48001D008840F01000F8
:102A80004749091D088070474548001D00884FF6DA
:102A9000EF7108404249091D0880704700214048F5
:102AA0001C300188001F008841EA0040704700B5D3
:102AB0000246FFF7E0FF100C394918310880091D64
:102AC0000A80FFF7E1FF00BD00B50246FFF7D3FF24
:102AD000C2F30340324908310880091D0A80FFF71C
:102AE000D3FF00BD00B50246FFF7C5FF100C2C490F
:102AF00020310880091D0A80FFF7C6FF00BD0020B5
:102B00002749103109880907080B2549143109881C
:102B10000843704700BF2248001D008800F02000D5
:102B20000028F8D070471E48001D00884FF6F77146
:102B300008401B49091D088000BF1948001D008876
:102B400000F008000028F8D0704701460020144A21
:102B5000121D12880A400AB1012000E000207047CF
:102B60000F49091D098881430D4A121D11807047C4
:102B7000014600200A4A121D12880A40D0B2084AB3
:102B800012880A4012B108B1012000E0002070470D
:102B90000349091D09888143014A121D11807047AC
:102BA0000028004010B50120FDF7C6FF0020FDF70A
:102BB000C3FF10BD2A49086070472949091F0860F2
:102BC0007047274984310860704701460020254A34
:102BD00010884FF67F4210400843224A1080704709
:102BE000014600201F4A10884FF6807210400843AB
:102BF0001C4A1080704708B500220092194A2C3AEE
:102C00000092009A02440092009A116008BD08B533
:102C100001460020009013482C380090009808448A
:102C200000900098008808BD0D489C300068C0B234
:102C300070470C480830008840F00100094908310D
:102C4000088070470648A0300068C0B27047054849
:102C50000830008840F002000249083108807047BF
:102C600004860D422C6C004010B514F02BFB10BDF7
:102C700010B514F06CFB10BD10B50446204616F0DC
:102C800041FA10BD10B53E480078012805D114F076
:102C900080FA14F0BCFB14F097FA10BD10B56FF079
:102CA0000400FDF788FD374800683749B0FBF1F0B4
:102CB00036490870334800683349B0FBF1F441F2FB
:102CC000883044430520324908804FF0E0200069F5
:102CD00040F002004FF0E0210861084644610069BD
:102CE00040F00100086110BD2DE9F04707460026BD
:102CF0004FF0E020D0F814902448007807FB00F84B
:102D000000BFFFF7B1FF4FF0E020856911E04FF001
:102D1000E0208469AC420CD0AC4202D2281B0644AD
:102D200003E0A9EB0400284406442546464500D3A9
:102D300000E0ECE700BFFFF79BFFBDE8F08770B550
:102D400004460F480078A0B11248007888B91048AE
:102D50000088844206DB0E48008894FBF0F5284684
:102D6000FFF78AFF0A48008894FBF0F100FB11404E
:102D700084B24FF47A7104FB01F0FFF7B5FF70BD28
:102D8000FA0200200000002000127A002800002033
:102D90002A000020ED020020014600BF704700BF5E
:102DA0004B4A128802F04002002AF9D0C2B2484BC6
:102DB0001B1D1A80704710B586B00446012144F2ED
:102DC0000400FDF785FE4FF40070ADF814000320F9
:102DD0008DF8160018208DF8170005A93D48FEF75C
:102DE000C5FA4FF48060ADF8140004208DF8170088
:102DF00005A93848FEF7BAFA25208DF8000003200F
:102E00008DF801008DF8020001208DF8030068465E
:102E1000FDF787FC01940020ADF80800ADF80A002A
:102E2000ADF80C00ADF810000C20ADF80E0001A9B3
:102E30002748FEF77AF8012240F225512448FEF790
:102E40000CF901212248FEF7FCF806B010BD10B5C0
:102E500014F09FF940F225511D48FEF7E3F910B335
:102E60001B48FEF75FF9C4B21B48008800F400401D
:102E7000C8B91948008800F4804060B10A2C03D01A
:102E800000201549088020E01348008840F40040E5
:102E90001149088019E00D2C06D10F48008840F434
:102EA00080400D49088010E00B480088C0F30D00F9
:102EB0000A490C5408480088401C07490880084605
:102EC0000088C72801DD0020088014F07DF910BDBE
:102ED0000038014000080140300000201C0800209C
:102EE00008B501212420FDF7F3FD4FF48070ADF803
:102EF000000010208DF8030003208DF802006946C1
:102F00000948FEF733FA4FF480710748FEF7DBFA01
:102F10000420ADF8000069460448FEF727FA0421B2
:102F20000248FEF7D0FA08BD000801400014014035
:102F300008B501211420FDF7CBFD01213748FEF72C
:102F4000E6FA4FF40040ADF8000048208DF8030089
:102F500069463348FEF70AFA2020ADF80000482001
:102F60008DF8030069462F48FEF700FA0120ADF8FE
:102F7000000028208DF8030069462948FEF7F6F97D
:102F800008BD10B5044614B1012027490870264831
:102F9000007868B320212348FEF77BFA58B14FF43C
:102FA00000411F48FEF775FA28B101211C48FEF7C1
:102FB00070FA01281CD10A20FFF7C1FE00201A492F
:102FC000087020211748FEF764FA08B9012010BDE7
:102FD0004FF400411248FEF75CFA08B90220F6E708
:102FE00001210F48FEF755FA012815D10320EEE71D
:102FF00020210C48FEF74DFA01280DD1C1030848E5
:10300000FEF747FA012807D101210548FEF741FAEA
:1030100010B90120044908700020D8E700023000F0
:1030200000080140001001403200002070B5054644
:10303000002405E0601CC4B2C82C01DD002070BD76
:1030400002213448FDF7F7FE0028F3D02946314825
:10305000FDF79EFE002405E0601CC4B2C82C01DD13
:103060000020ECE701212B48FDF7E5FE0028F3D016
:103070002848FDF78FFEC0B2E1E708B5012108201E
:10308000FDF726FD01218803FDF72FFD4FF4604079
:10309000ADF8000018208DF8030003208DF8020021
:1030A00069461D48FEF762F94FF460411A48FEF781
:1030B0000AFA0020194908804FF4827048800020E5
:1030C00088800220C8800120088140024881382081
:1030D00088810020C881072008820E48FDF782FD04
:1030E00001210C48FDF723FEFF20FFF79FFF08BDDD
:1030F000084909884FF6C7721140064A11801146E7
:103100000988014311801146098841F0400111806E
:103110007047000000380040000C0140E408002027
:1031200070B505460C4600260020FE49086004F0F4
:103130001F0040EA05063046FFF778FFFF20FFF743
:1031400075FF064604F0800018B1FF20FFF76EFF00
:1031500006460120F3490860304670BD2DE9F04174
:1031600004460D46164600270020EE49086005F08B
:103170001F0040EA04073846FFF758FF3046FFF7C4
:1031800055FF0120E849C1F8AC01BDE8F08110B558
:10319000044604F06000E549097888420ED0032215
:1031A0001F21A020FFF7DAFFC4F341121F21802066
:1031B000FFF7D4FF04F06000DC49087010BD10B5C3
:1031C00004462046FFF7E3FF21460020FFF7A8FF53
:1031D00010BD70B504460D462046FFF7D8FF2A46BD
:1031E00021464020FFF7BAFF70BD2DE9F0410446AB
:1031F0000027D220FFF7E3FF05462146D420FFF742
:10320000E8FF45F00101D220FFF7E3FF01E0781C61
:1032100087B2EA20FFF7D3FF00F0010018B14FF6A4
:10322000FF708742F3DB25F00101D220FFF7D1FFC9
:10323000D820FFF7C4FF0646D920FFF7C0FF46EAB3
:1032400000263046BDE8F08110B50020FFF7CDFF25
:1032500000F48074201210BD70B505460C4600269F
:103260002946D420FFF7B5FFE1B2D620FFF7B1FF22
:103270002112D720FFF7ADFF01E0701C86B2EA20D3
:10328000FFF79DFF00F0010018B14FF6FF70864276
:10329000F3DB70BD10B57220FFF791FF00F01F0047
:1032A00010BDF0B589B0002401211920FDF710FCF4
:1032B0004FF46040ADF8200010208DF8230003206B
:1032C0008DF8220008A99A48FEF750F84FF46041A3
:1032D0009748FEF7F8F84FF44060ADF8200008A9D1
:1032E0009448FEF743F84FF440619248FEF7EBF83C
:1032F0004FF48050ADF8200048208DF8230008A935
:103300008C48FEF733F80C210220FEF745F94FF404
:103310008050019000208DF808000C208DF80900E5
:1033200001208DF80A0001A8FFF78AF84FF48050B9
:10333000FFF7FDF828208DF8000001208DF801002E
:1033400000208DF8020001208DF803006846FDF78B
:10335000E8F9FFF792FE00217748FDF7E8FC00202E
:10336000ADF80C004FF48270ADF80E000020ADF8FF
:103370001000ADF81200ADF814004FF40070ADF875
:1033800016003820ADF818000020ADF81A0007200C
:10339000ADF81C0003A96848FDF724FC012166482C
:1033A000FDF7C5FC1020FFF7A3FE64480568022066
:1033B0005E49087200215D4841728172290CC17218
:1033C000290A0173457300205649091F08600A2025
:1033D000FFF7B5FC01205449C1F8A8010A20FFF706
:1033E000AEFCFF2200211046FFF7B8FE04E0601C8F
:1033F00084B20120FFF7A3FC1D20FFF7E0FE00F0E0
:10340000010008B9FA2CF2DBFA2C02DB012009B02A
:10341000F0BDFFF73FFF0746394649A016F004F814
:1034200000204249486000210820FFF7D2FE002119
:103430000920FFF7CEFE10210A20FFF7CAFE1A214D
:103440000B20FFF7C6FE11210420FFF7C2FE1A2150
:103450000520FFF7BEFEFF210620FFF7BAFE1F2161
:103460000720FFF7B6FE00210C20FFF7B2FE002177
:103470000D20FFF7AEFEB0213820FFF7AAFE3F2156
:103480002820FFF7A6FE30212920FFF7A2FEF92110
:103490003020FFF79EFEF7213120FFF79AFE0D2125
:1034A000C020FFF796FE0021C120FFF792FE3321D6
:1034B000C220FFF78EFEEE21CA20FFF78AFE05210B
:1034C000CB20FFF786FE1521C420FFF782FE1221D4
:1034D000C620FFF77EFE0C21C720FFF77AFE1348B7
:1034E000017AE420FFF775FE1048417AE520FFF7E6
:1034F00070FE0E48817AE220FFF76BFE0B48C17A1E
:10350000E320FFF766FE0948017BE020FFF761FE3C
:103510000648417BE120FFF75CFE4FF480710020FC
:103520001AE00000AC01224200002242F80800200C
:10353000000C01400010014000380040E8F7FF1F78
:10354000454E4332384A36302056657273696F6E85
:103550003A25640D0A000000FFF77EFE4FF48071EB
:103560001020FFF779FE1F20FFF711FECB221B2151
:103570008020FFF7F3FD04221F218020FFF7EEFDDE
:10358000FFF762FE08B1AFA000E0B1A006463146E9
:10359000B2A015F049FF002039E770B505460C468A
:1035A0000020B44908603A20FFF740FD05E06D1E99
:1035B0000020FFF73BFD2070641C002DF7D1002098
:1035C00020700120AB49086070BD70B504460D46FF
:1035D0000020A84908607A20FFF728FD04E0641E57
:1035E0002878FFF723FD6D1C002CF8D10120A1499C
:1035F000086070BD70B504460D4615F05BFE0646CA
:1036000000BF1F20FFF7DBFD00F008000028F8D105
:1036100040F2EE50844209D90422C2218020FFF7F3
:103620009DFD09220E218020FFF798FD1121022027
:10363000FFF7CFFD1A210320FFF7CBFD1120204417
:10364000C1B20620FFF7C5FD41F611202044C0F3AA
:1036500007210720FFF7BDFD002211467A20FFF762
:103660007DFD29462046FFF7B0FF08221F2180205C
:10367000FFF774FD1C20FFF7A2FD00F0020020B14F
:1036800008221F21A020FFF769FD304615F016FE25
:1036900070BD2DE9F04105460F4615F00BFE804642
:1036A0003920FFF78CFD10B90020BDE8F08100BF84
:1036B0001D20FFF784FD00F004000028F8D16E48BB
:1036C00001790020FFF785FD6B488088C0F3072152
:1036D0000120FFF77EFD00213A20FFF721FD66491A
:1036E000486000213A20FFF71BFD6349496841EA21
:1036F00000206149486000213A20FFF711FD04468F
:1037000000213A20FFF70CFD44EA0024241F002189
:103710003A20FFF705FD064600213A20FFF700FD9D
:1037200046EA0026681EA04200D26C1E06F0800009
:1037300008B9002403E039462046FFF72EFF4E4823
:1037400001790C20FFF745FD4B488088C0F3072125
:103750000D20FFF73EFD40221E218020FFF7FEFCDA
:10376000404615F0ABFD20469FE770B580221B2137
:10377000A020FFF7F3FC1C20FFF721FD044604F016
:10378000400030B140221C21A020FFF7E7FC01F0EF
:103790005DFD04F0080020B108221C21A020FFF7E5
:1037A000DDFC04F00100002823D001221C21A02010
:1037B000FFF7D4FC3920FFF702FD06460D20FFF786
:1037C000FEFC05020C20FFF7FAFC0543681C85B2DD
:1037D000E9B20C20FFF7FDFC29120D20FFF7F9FCE0
:1037E00040221E218020FFF7B9FC314623A015F0AE
:1037F0001BFE04F0020060B102221C21A020FFF792
:10380000ADFC12221D21A020FFF7A8FC23A015F07B
:103810000BFE80221B211046FFF7A0FC70BD10B5E7
:1038200013F0B7FC4FF48050FEF781FE01E0FFF784
:103830009CFF10487C3800680028F8D013F0C4FCC6
:1038400010BD000046756C6C204475706C65780086
:1038500048616C66204475706C657800454E433253
:10386000384A3630204475706C65783A25730D0AF5
:1038700000000000AC012242F8080020BDD3CAD5E8
:10388000B4EDCEF3A3A1BDD3CAD5B5BDCAFDBEDD8F
:10389000B0FCB8F6CAFD3A25640D0A00B7A2CBCD3C
:1038A000B4EDCEF3210D0A0000B585B001214FF42F
:1038B0000170FDF70DF94FF40040FDF76DF8544825
:1038C000FEF73EFE002000908DF804008DF8050004
:1038D0004FF4602002900020039001208DF810002A
:1038E00069464B48FEF753FE0120FFF70DF8012112
:1038F0004748FEF778FE4648FEF797FE00BF44486B
:10390000FEF798FE0028FAD14148FEF79DFE00BF61
:103910003F48FEF79EFE0028FAD105B000BD10B565
:1039200004460723012221463948FEF7C8FE01213B
:103930003748FEF798FE00BF02213548FFF704F82C
:103940000028F9D03248FEF721FF10BD70B50024E1
:10395000002509E01020FFF7E2FF204484B2052093
:10396000FFF7EDF9681CC5B20A2DF3DB0A2094FBC2
:10397000F0F080B270BD2DE9F04107460C460025FD
:10398000002608E03846FFF7CAFF05440520FFF788
:10399000D6F9701CC6B2A642F4DBB5FBF4F080B2D7
:1039A000BDE8F0812DE9F05F14211020FFF7E3FF5F
:1039B0008346584616F006FE804616F0D7FD0646AA
:1039C0004FF06632134B16F0E9FB04460D462246D3
:1039D0002B461148114916F0DFFC8046104A114B66
:1039E00016F014FA064600220F4B16F067F904464B
:1039F0000D4600220D4B2046294616F0CFFB064609
:103A000016F05CFB0FFA80FA5046BDE8F09F00000C
:103A10000024014066664A3FE17A14AE47E1F63F72
:103A200022FDF675E09C713F0000394000005940CE
:103A300008B503208DF8000000208DF801008DF8F6
:103A4000020001208DF803006846FCF76AFE08BDFD
:103A5000F0B503460C461546642093FBF0F0C6B261
:103A6000642093FBF0F700FB1730C1B2132E02DD88
:103A700001F16400C1B20846CF1701EB977701EB63
:103A8000A707BAB2072092FBF0F700FB172082B21B
:103A90005719601EDFF8E4C31CF80000384482B2F6
:103AA000CF1701EB9777BF10A1EB87071FB9032C46
:103AB00001DA501E82B2072092FBF0F700FB1720BC
:103AC000C0B2F0BD0146CA1701EB92729210A1EB91
:103AD000820292B9642091FBF0F200FB121050B9FF
:103AE0004FF4C87091FBF0F200FB121008B90120EE
:103AF00070470020FCE70120FAE70020F8E770B5E6
:103B0000002600240025FEF7C9FF0646DC48B6FB68
:103B1000F0F4DC480088A0423CD0DA490C8040F246
:103B2000B27510E02846FFF7CDFF40B1B4F5B77F7E
:103B300002D3A4F5B77404E0681C85B206E0A4F2D1
:103B40006D14681C85B2B4F5B67FEBD800BFCE48C3
:103B50008580002516E0CC498888FFF7B3FF30B197
:103B6000012D04D11D2C01D31D3C09E00CE0C748F8
:103B7000405DA04203D8C548405D241A00E003E040
:103B8000681C85B21C2CE6D200BF681CBE49887137
:103B9000601CC871BA48B6FBF0F100FB11644FF429
:103BA0006160B4FBF0F0B84908704FF46160B4FB99
:103BB000F0F100FB11403C21B0FBF1F0B24948703C
:103BC0004FF46160B4FBF0F100FB11403C21B0FB0D
:103BD000F1F201FB1200AC4988700B46DA79997951
:103BE0009888FFF735FFA8490872002070BD2DE9BD
:103BF000F05F06460F4690469946DDE90AAB002481
:103C000040F2B270864203DB40F63300864202DDAA
:103C10000120BDE8F09F40F2B2750AE02846FFF7A8
:103C200051FF10B19A48044401E09A480444681CCA
:103C300085B2B542F2DB781EC7B2002510E093488A
:103C4000405D40F2A321484304EBC0143046FFF727
:103C500039FF18B1012D01D189480444681C85B28F
:103C6000BD42ECDBA8F1010040F2A321484304EB84
:103C7000C014C9EB4910C0EB092004EB0014CAEBD7
:103C80000A1004EB80045C4401214FF0C050FCF7A3
:103C90002CFF0120FEF787FE2046FEF708FFFEF707
:103CA00039FF0020B5E71CB5002401214FF0C050BA
:103CB000FCF71BFF0120FEF776FE0420FEF7A7FFAE
:103CC00045F25001884248D001214FF0C050FCF726
:103CD0000CFF0120FEF767FEFEF764FF0120FCF7F2
:103CE00064FE04E0601CC4B20A20FFF728F84120FB
:103CF000FCF7C3FD08B9FA2CF4DBFA2C01DB012038
:103D00001CBD4FF48070FCF76CFE0120FCF76FFEC9
:103D1000FEF700FFFEF707FF01210846FEF79EFEB3
:103D2000FEF7F8FEFEF7A7FE47F6FF70FEF7CCFEA3
:103D3000FEF7F0FE37202A2111230E22CDE90010D4
:103D4000012140F2DF70FFF752FFFEF79DFE45F2C2
:103D500050010420FEF74FFF07E0FEF7E4FE0121CB
:103D60000846FEF77BFEFEF7D5FEFFF761FEFFF784
:103D7000C6FE0020C4E70EB50120FEF7F9FE08B12B
:103D8000FFF7BDFE0220FEF7F3FEA0B10220FEF712
:103D9000FFFEFFF7B4FE3C4880783B4949783A4A39
:103DA0001278CDE9002102903748C3798279818861
:103DB00039A015F039FB0520FEF7EAFEFEF7AAFE52
:103DC0000EBD2DE9F05F06460F4690469946DDE9A7
:103DD0000AAB002440F2B270864203DB40F63300A7
:103DE000864202DD0120BDE8F09F40F2B2750AE094
:103DF0002846FFF767FE10B12548044401E0254836
:103E00000444681C85B2B542F2DB781EC7B20025B7
:103E100010E01E48405D40F2A321484304EBC0146B
:103E20003046FFF74FFE18B1012D01D1144804446C
:103E3000681C85B2BD42ECDBA8F1010040F2A32171
:103E4000484304EBC014C9EB4910C0EB092004EB54
:103E50000014CAEB0A1004EB80045C4401214FF00B
:103E6000C050FCF742FE0120FEF79DFD2046FEF704
:103E700039FEFEF74FFE0020B5E7000076A60108E8
:103E800080510100340000200809002082A60108AA
:103E90000085E2018033E101416C61726D2054695B
:103EA0006D653A25642D25642D25642025643A2509
:103EB000643A25640A00000010B58CB004461E2345
:103EC0000BAA03A9204600F0ABFE0090009810B1A9
:103ED00001200CB010BD9DF82C00044400200B9074
:103EE0000EE040489DF82C2050F8221003A800F066
:103EF000FFFD00B908E09DF82C00401CC0B20B90FB
:103F00009DF82C000728ECD300BF9DF82C00072853
:103F100063D2DFE800F004053C5E6564630000BF27
:103F200031A015F081FA31A015F07EFA3FA015F00E
:103F30007BFA4EA015F078FA5CA015F075FA6BA02C
:103F400015F072FA79A015F06FFA86A015F06CFAE8
:103F50008BA015F069FA90A015F066FA94A015F000
:103F600063FA99A015F060FA9EA015F05DFAA4A07E
:103F700015F05AFAB0A015F057FABDA015F054FA92
:103F8000C8A015F051FAD4A015F04EFA9AE216A086
:103F900015F04AFAE0A015F047FA00200B900EE069
:103FA000ED4800689DF82C2000EBC2004168EBA0B2
:103FB00015F03AFA9DF82C00401CC0B20B90E64870
:103FC000007D9DF82C108842EADC07A015F02CFA41
:103FD00078E205A015F028FAC4E171E245E219E2A1
:103FE000ECE10000380000200D0A00002D2D2D2DE1
:103FF0002D2D2D2D2D2D2D2D2D2D2D2D2D2D2D2DF1
:104000002D2D2D2D55534D4152542056332E312DEB
:104010002D2D2D2D2D2D2D2D2D2D2D2D2D2D2D2DD0
:104020002D2D2D2D2D2D2D200D0A0000202020209E
:1040300055534D415254CAC7D3C9414C49454E54BA
:10404000454BBFAAB7A2B5C4D2BBB8F6C1E9C7C930
:10405000B5C4B4AEBFDAB5F7CAD4BBA5BDBBD7E90A
:10406000BCFE2CCDA8B9FD200D0A0000CBFC2CC451
:10407000E3BFC9D2D4CDA8B9FDB4AEBFDAD6FACA6F
:10408000D6B5F7D3C3B3CCD0F2C0EFC3E6B5C4C83E
:10409000CEBACEBAAFCAFD2CB2A2D6B4D0D02ED2F0
:1040A000F2B4CB2CC4E3BFC90D0A0000D2D4CBE6D6
:1040B000D2E2B8FCB8C4BAAFCAFDB5C4CAE4C8EB12
:1040C000B2CECAFD28D6A7B3D6CAFDD7D62831307E
:1040D0002F3136BDF8D6C629A1A2D7D6B7FBB4AECC
:1040E000A1A2BAAFCAFDC8EB0D0A0000BFDAB5D86D
:1040F000D6B7B5C8D7F7CEAAB2CECAFD292CB5A57A
:10410000B8F6BAAFCAFDD7EEB6E0D6A7B3D631300F
:10411000B8F6CAE4C8EBB2CECAFD2CB2A2D6A7B399
:10412000D6BAAFCAFDB7B5200D0A0000BBD8D6B5C8
:10413000CFD4CABE2ED0C2D4F6B2CECAFDCFD4CA16
:10414000BEBDF8D6C6C9E8D6C3B9A6C4DC2CD0C259
:10415000D4F6BDF8D6C6D7AABBBBB9A6C4DC2E0D13
:104160000A000000BCBCCAF5D6A7B3D63A77777769
:104170002E6F70656E6564762E636F6D0D0A00009C
:1041800055534D415254D3D037B8F6CFB5CDB3C304
:10419000FCC1EE3A0D0A00003F3A202020202020EA
:1041A000BBF1C8A1B0EFD6FAD0C5CFA20D0A00006E
:1041B00068656C703A202020BBF1C8A1B0EFD6FA38
:1041C000D0C5CFA20D0A00006C6973743A2020207C
:1041D000BFC9D3C3B5C4BAAFCAFDC1D0B1ED0D0AD2
:1041E0000A00000069643A2020202020BFC9D3C300
:1041F000BAAFCAFDB5C44944C1D0B1ED0D0A0A0039
:104200006865783A20202020B2CECAFD3136BDF84C
:10421000D6C6CFD4CABE2CBAF3B8FABFD5B8F12BE4
:10422000CAFDD7D6BCB4D6B4D0D0BDF8D6C6D7AAAE
:10423000BBBB0D0A0A0000006465633A2020202001
:10424000B2CECAFD3130BDF8D6C6CFD4CABE2CBA64
:10425000F3B8FABFD5B8F12BCAFDD7D6BCB4D6B4E3
:10426000D0D0BDF8D6C6D7AABBBB0D0A0A00000045
:1042700072756E74696D653A312CBFAAC6F4BAAF17
:10428000CAFDD4CBD0D0BCC6CAB13B302CB9D8B152
:10429000D5BAAFCAFDD4CBD0D0BCC6CAB13B0D0A8B
:1042A0000A000000C7EBB0B4D5D5B3CCD0F2B1E072
:1042B000D0B4B8F1CABDCAE4C8EBBAAFCAFDC3FBFB
:1042C000BCB0B2CECAFDB2A2D2D4BBD8B3B5BCFC8E
:1042D000BDE1CAF82E0D0A002D2D2D2D2D2D2D2DD1
:1042E0002D2D2D2D2D2D2D2D2D2D2D2D2D2D2D2DFE
:1042F0002D2D414C49454E54454B2D2D2D2D2D2D09
:104300002D2D2D2D2D2D2D2D2D2D2D2D2D2D2D2DDD
:104310002D2D2D200D0A00002D2D2D2D2D2D2D2D77
:104320002D2D2D2D2D2D2D2D2D2D2D2D2D2D2D2DBD
:104330002DBAAFCAFDC7E5B5A52D2D2D2D2D2D2DDF
:104340002D2D2D2D2D2D2D2D2D2D2D2D2D2D2D2D9D
:104350002D2D2D2D200D0A009400002025730D0A0F
:1043600000000000EFA015F05FF800200B901AE0AD
:10437000FC4909689DF82C2001EBC20101AB02AA9F
:10438000486803A900F072FCF64800689DF82C10FC
:1043900050F8312003A9F4A015F046F89DF82C0040
:1043A000401CC0B20B90EF48007D9DF82C10884255
:1043B000DEDCAFF2CC3015F037F883E0AFF2D83066
:1043C00015F032F80BAA03A9204600F02BFD9DF84A
:1043D0002C00C8B9694603A800F0BDFB0B909DF8FE
:1043E0002C0020B9E5A0009915F01EF80EE09DF80C
:1043F0002C00042801D002206BE5E3A015F014F88E
:104400000120D849C87501E0022062E5DDA015F061
:104410000BF857E0DBA015F007F80BAA03A920461C
:1044200000F000FD9DF82C00C8B9694603A800F013
:1044300092FB0B909DF82C0020B9D8A0009914F0A5
:10444000F3FF0EE09DF82C00042801D0022040E587
:10445000D5A014F0E9FF0020C249C87501E0022090
:1044600037E5C8A014F0E0FF2CE0C6A014F0DCFF94
:104470000BAA03A9204600F0D5FC9DF82C00C8B972
:10448000694603A800F067FB0B909DF82C0078B9F3
:10449000B449009881F8EC00084690F8EC0018B197
:1044A000C6A014F0C1FF07E0CBA014F0BDFF03E0ED
:1044B00002200EE502200CE5B2A014F0B5FF01E0E9
:1044C000012006E500BF002003E510B50121C94821
:1044D000FDF790FF4FF6FF71C648FDF75BFF002127
:1044E000C448FDF755FF00209E49C1F8F00010BDFB
:1044F00010B50121BF48FDF774FF012808D1994884
:10450000D0F8F0004FF6FF7108449649C1F8F0006A
:10451000B848FDF760FF9349D1F8F010084491497D
:10452000C1F8F0000846D0F8F00010BD10B5012128
:10453000B048FDF762FF01280AD18A49086980471F
:104540000021AC48FDF724FF6421AA48FDF722FFB3
:104550000121A848FDF762FF10BD7FB505460C4656
:1045600001210420FCF7C1FAADF80850ADF8044071
:104570000020ADF80A00ADF8060001A99D48FDF73E
:1045800017F9012241219B48FDF789FC1E208DF877
:10459000000003208DF801008DF8020001208DF845
:1045A00003006846FCF7BDF801219248FDF75CFC6A
:1045B0007FBD10B5044604EBC40000EB04100122DB
:1045C000C2EB800081B24FF47A70FFF7C6FF012082
:1045D0006449C87510BD30B595B0054613AB12AA35
:1045E00009A9284600F042FB044614B1204615B044
:1045F00030BD0020149026E05A4909689DF85020EB
:1046000001EBC20113AB11AA486801A900F02EFB0F
:1046100004460CB12046EAE709A901A800F068FAAF
:1046200060B99DF844009DF84810884201DD0220E1
:10463000DDE79DF850004B4988750AE09DF8500071
:10464000401CC0B214904748007D9DF8501088422D
:10465000D2DC00BF4348007D9DF85010884201D154
:104660000420C4E714A9284600F04DFC04460CB110
:104670002046BCE79DF850003A4948750020B6E74F
:104680002DE9F0419AB03748847D007DA04202DCDC
:104690001AB0BDE8F0813349096801EBC40106ABEB
:1046A00007AA486808A900F0E1FA08A952A014F086
:1046B000BBFE0026BAE02B48008B0121B140084028
:1046C000D8B122214EA014F0AFFE304600F00EFC0F
:1046D00024492431471839464AA014F0A5FE222166
:1046E00047A014F0A1FE304600F000FC1D49243123
:1046F000084410A941F826008EE0304600F0F6FB91
:1047000018492431085810A941F826001548C07DE1
:1047100030B910A850F826103BA014F085FE7BE0BD
:1047200074E000002D2D2D2D2D2D2D2D2D2D2D2D19
:104730002D2D2D2D2D2D2D2D2D2D2D2D2DBAAFCAFD
:10474000FD204944202D2D2D2D2D2D2D2D2D2D2DB0
:104750002D2D2D2D2D2D2D2D2D2D2D2D2D2D2D2D89
:10476000200D0A00940000202573206964206973DD
:104770003A0D0A3058253038580D0A004845583A45
:10478000305825580D0A00003136BDF8D6C6B2CED5
:10479000CAFDCFD4CABE210D0A0000004445433AE9
:1047A000256C750D0A0000003130BDF8D6C6B2CEBA
:1047B000CAFDCFD4CABE210D0A00000052756E207A
:1047C00054696D652043616C63756C6174696F6ECB
:1047D000204F4E0D0A00000052756E2054696D6521
:1047E0002043616C63756C6174696F6E204F46463F
:1047F0000D0A0000000800400D0A25732800000083
:104800002563000025730000256C750010A850F882
:10481000261095A014F008FE9DF81C00401EB04222
:1048200002D093A014F000FE701CC6B29DF81C00CC
:104830008642FFF640AF8FA014F0F6FDFFF745FE6D
:104840008D48407D0B280DD2DFE800F0060D151EC7
:1048500027323F4E5F7287008749096851F834005C
:104860008047054690E0844A126852F83410109848
:104870008847054688E0804B1B6853F83420DDE903
:104880001001904705467FE07B4F3F6857F8343072
:1048900010A807C89847054676E0DFF8DCC1DCF8C9
:1048A00000C05CF8347010A80FC8B84705466BE02C
:1048B0001498DFF8C4C10090DCF800C05CF83470D4
:1048C00010A80FC8B84705465EE0DDE91401DFF81F
:1048D000A8C1CDE90001DCF800C05CF8347010A874
:1048E0000FC8B84705464FE0DDE914121698DFF807
:1048F00088C1CDE900120290DCF800C05CF8347089
:1049000010A80FC8B84705463EE0DDE91423DDE9ED
:104910001610DFF864C1CDE90023CDE90210DCF800
:1049200000C05CF8347010A80FC8B84705462BE0EB
:10493000DDE91523DDE91710CDE90123CDE90310E9
:104940001498DFF834C10090DCF800C05CF83470D3
:1049500010A80FC8B847054616E0DDE91623DDE9C3
:104960001810CDE90223CDE90410DDE91401DFF8C8
:1049700008C1CDE90001DCF800C05CF8347010A873
:104980000FC8B847054600BF00BFFFF7B1FD9DF84F
:10499000180001280CD13848C07D20B9294637A01D
:1049A00014F042FD07E0294636A014F03DFD02E078
:1049B00033A014F039FD304890F8EC0088B12E484F
:1049C000D0F8F0000A21B0FBF1F201FB12072A48EF
:1049D000D0F8F000B0FBF1F83A4641462CA014F0B4
:1049E00023FD00BF54E670B53148008800F4004054
:1049F000002833D02E48057800202E4948551E48FF
:104A000081682C48884704461CB91B49C868804700
:104A100021E02848FFF750FA0546012D00D02C462A
:104A2000CCB1012C06D0022C08D0032C0AD0042CC7
:104A300010D10BE020A014F0F7FC0BE021A014F043
:104A4000F3FC07E022A014F0EFFC03E023A014F035
:104A5000EBFC00BF00BF00201549088070BD014677
:104A60000868704701607047305825580000000002
:104A70002C00000029000000940000203D256C75EA
:104A80003B0D0A003D305825583B0D0A0000000040
:104A900046756E6374696F6E2052756E2054696D31
:104AA000653A25642E2531646D730D0A00000000FF
:104AB000300000201C080020BAAFCAFDB4EDCEF3D0
:104AC000210D0A00B2CECAFDB4EDCEF3210D0A00CD
:104AD000B2CECAFDCCABB6E0210D0A00CEB4D5D221
:104AE000B5BDC6A5C5E4B5C4BAAFCAFD210D0A005F
:104AF00002460AE010780B78984201D001207047F6
:104B0000107800B902E0521C491CF3E700BF0020F6
:104B1000F5E706E002780A70027802B902E0401C6C
:104B2000491CF7E700BF70470146002005E00A78FE
:104B300002B903E0421CD0B2491CF8E700BF70473D
:104B400010B50246012000E050430B1EA1F1010404
:104B5000E1B2F9D110BD2DE9F04307460E4600251C
:104B60004FF00A083C46002030601FE020783928CA
:104B700002DC207830280ADA2078462802DC207807
:104B8000412804DA2078582809D1012D07D120784E
:104B9000412801DB4FF01008681CC5B205E0207801
:104BA00000B904E00120BDE8F083641CDEE700BF2B
:104BB0003C46B8F1100F0FD1032D01DA0220F2E7C5
:104BC0002078302806D16078582803D1A41CA81E6C
:104BD000C5B204E00320E6E70DB90420E3E71BE0DB
:104BE0000DB1681EC5B22078392806DC207830283F
:104BF00003DB2078A0F1300902E02078A0F137092A
:104C000029464046FFF79CFF316809FB00103060E1
:104C1000641C207800B900E0E2E700BF0020C2E792
:104C200010B50446002010700BE020780870641C5A
:104C3000491C1078401C10701078984201DB01204C
:104C400010BD2078202802D020780028EDD1002047
:104C5000087000BFF4E70146491C00E0491C0878D1
:104C6000202801D10029F9D1087870472DE9FF4F9C
:104C700085B08046894600270020049003900120DB
:104C800002904FF0000B002544461DE020782028BC
:104C900016D005F07F00052812DA0DB945F0800521
:104CA00005F07F00042803D120782A2800D00EE0E8
:104CB000207805F07F010DF80100681CC5B202E004
:104CC000852D00D103E0641C20780028DED100BFD0
:104CD0008DB1002005F07F010DF80100CBA16846E1
:104CE000FFF706FF18B900210898017002E00121C2
:104CF0000898017000254FF0000A444614E0641C37
:104D00000AF1010000F0FF0A2078202802D0207864
:104D10002A2809D12046FFF79EFF0646282E03D0F9
:104D20002A2E01D0CDF810A02078282802D0207893
:104D30000028E4D14446049810B10498401C04446F
:104D40004FF0000A002654E0207810B94FF0010A15
:104D500050E02078282803D116B9781CC7B213E098
:104D60002078292808D13EB917B1781EC7B201E0D2
:104D70004FF0010A47B93DE02078222804D10EB94E
:104D8000012000E00020064647B9207820282FD0D7
:104D9000207889F8000009F1010929E020782C2801
:104DA00004D101200290681CC5B214E020782028AC
:104DB00011D0207828280ED04DB9BBF1050F06DAA6
:104DC00020780DF80B000BF1010000F0FF0B0298AA
:104DD000401CC0B20290012F0AD10298022807D1CC
:104DE0000298401CC0B202900398401CC0B20390CD
:104DF000641CA9E700BF0398012809D100200DF821
:104E00000B0082A16846FFF773FE08B900200390EB
:104E1000079903980870002089F80000504609B0EF
:104E2000BDE8F08FF0B503461546002000220026AD
:104E3000002455E01F782C2F01D104B901221F78DE
:104E4000292F01D01F780FB904B94AE0002E34D1C0
:104E50001F78302F02DB1F78392F11DD1F78612F6B
:104E600002DB1F78662F0BDD1F78412F02DB1F78D6
:104E7000462F05DD1F78582F02D01F78782F0CD1D0
:104E800002B12EE01F78612F03DB1F78203F0F70E7
:104E900001E01F780F70491C1FE01F78222F04D1FA
:104EA00002B11EE00126012417E01F78202F14D044
:104EB0001F782C2F11D0FF2613E01F78222F00D14E
:104EC000002402B10DE044B11F785C2F02D15B1CBD
:104ED000471CF8B21F780F70491C471CF8B25B1CC6
:104EE000A8E700BF00270F702E70F0BD024600201B
:104EF000002105E0474B5B5C0344D8B24B1CD9B2A0
:104F00009142F7DB70472DE9F043B5B005460F46F7
:104F10000024002604E000213E488155701CC6B2E2
:104F20000A2EF8DB06E06D1C287818B9012035B090
:104F3000BDE8F08328782828F5D16D1C61E034AAFB
:104F400069462846FFF76EFF064635449DF8D000B7
:104F500020B1012827D0FF284CD149E09DF800005E
:104F600000B333A96846FFF7F6FD06460EB10220EE
:104F7000DDE72046FFF7BAFF26490A31339A0A5087
:104F8000A1F12400008B0121A140884321491A3955
:104F9000088304211F480155601CC4B20A2C01DD9E
:104FA0000320C4E726E06846FFF7BEFD401C00F082
:104FB000FF082046FFF79AFF16490A3100EB010966
:104FC00049466846FFF7A5FD12481A38018B0120B3
:104FD000A040014388B20F491A3908830D4800F8F0
:104FE0000480601CC4B20A2C01DD03209FE701E0AD
:104FF00002209CE700BF2878292801D0287800B932
:1050000000E09CE700BF3C70002090E7766F696489
:1050100000000000AE00002070B503460C4603E01F
:1050200014F8015B03F8015B151EA2F10102F7D130
:1050300070BD30B5034601E003F8011B141EA2F158
:105040000102F9D130BD10B504467C4951F8241055
:105050004A007B4951F824000021FFF7EAFF794913
:1050600051F824207649083951F824000021FFF72F
:10507000E0FF012172480830015510BD10B501460E
:105080000023002207E06E4850F8210030F812009B
:1050900000B15B1C521C694850F821009042F2D8C4
:1050A00064205843654C54F82140B0FBF4F0C0B282
:1050B00010BD2DE9F04704460F460025A94660487B
:1050C0000830005D20B95E481038016820468847E6
:1050D0001FB94FF0FF30BDE8F0875B4850F824005F
:1050E000B7FBF0F086B2584850F82400B7FBF0F157
:1050F00000FB117008B1701C86B2504850F82400B3
:10510000451E22E04E4850F8240030F8150020B922
:1051100009F101001FFA80F901E04FF00009B145E3
:1051200012D14FF0000808E0454850F8240005EB84
:10513000080120F8116008F10108B045F4D3424895
:1051400050F824006843C6E76D1E002DDADA4FF0F0
:10515000FF30C0E72DE9F04104460E4638480830DC
:10516000005D38B93648103801682046884701206C
:10517000BDE8F081334850F82400B04217D93248D6
:1051800050F82400B6FBF0F12D4850F8240030F818
:105190001120002507E00023294850F824004F196A
:1051A00020F817306D1C9542F5DB0020E0E7022067
:1051B000DEE770B505460C4604B970BD20480838D6
:1051C00050F82500261A31462846FFF7C3FF00BFD6
:1051D000F3E770B504460E4631462046FFF769FFF7
:1051E0000546681C08B9002070BD1548083850F8FD
:1051F00024002844F8E72DE9F04104460F461646FE
:1052000031462046FFF755FF0546681C10B90020BF
:10521000BDE8F0810A49083951F82410481932468E
:105220003946FFF7F9FE39462046FFF7C2FF04482A
:10523000083850F824002844EAE7000090A6010846
:1052400098010020A0A6010898A6010810B5D14831
:1052500002F005FE10BD10B5CF4801680020FFF731
:10526000A8FFCE4801680020FFF7A3FFCC480168E3
:105270000020FFF79EFFCB4801680020FFF799FF51
:1052800010BD70B506F0EAFB054629460020FFF781
:10529000A0FFC14908602946C3A014F0C5F841F633
:1052A0001C0421460020FFF794FFBC4908602146FA
:1052B000C4A014F0B9F84FF47A610020FFF789FF19
:1052C000B74908604FF400710020FFF782FFB5492D
:1052D0000860B148006840B1B048006828B1B048E3
:1052E000006810B10846006818B9FFF7B4FF012044
:1052F00070BD0020FCE7C0218171A822C27101228B
:10530000027264224272B549097A0170B349497A3E
:105310004170B249897A8170B049C97AC170AF4988
:10532000097B0171AD49497B4171C0218172A8227D
:10533000C272012202731E224273FF218173FF2277
:10534000C273027400224274C0218174A822C27404
:1053500001220275427500218175704710B58D4894
:1053600005F07FFA072013F031FC10BDFEB50746AB
:10537000002400250026874805F0DAFD0020984922
:10538000887598A014F050F8BDE0A0A014F04CF877
:10539000804844688568C668002C48D0022090493F
:1053A00088750846407909798D4AD278CDE900217F
:1053B00002908B4883784278017899A014F034F8F1
:1053C000210E87484173210C0173210AC1720146E5
:1053D0008C72407B00900846037BC27A817A9EA043
:1053E00014F022F8290E7E484174290C0174290A10
:1053F000C17301468D73407C00900846037CC27BDC
:10540000817BA1A014F010F8310E75484175310C64
:105410000175310AC17401468E74407D00900846C2
:10542000037DC27C817CA4A013F0FEFF6CE0594890
:10543000006A407B042863DDFF20694988750846BF
:10544000407B01066648007B41EA00416448C07A1F
:1054500041EA00206249897A08434E494860604821
:10546000407C01065E48007C41EA00415C48C07B0C
:1054700041EA00205A49897B0843464988605848D8
:10548000407D01065648007D41EA00415448C07CF9
:1054900041EA00205249897C08433E49C86092A0F5
:1054A00013F0C2FF4E48417900794D4AD278CDE9D8
:1054B000002002914A4883784278017858A013F07E
:1054C000B3FF4748407B00904548037BC27A817A0E
:1054D0008DA013F0A9FF4248407C00904048037C17
:1054E000C27B817B94A013F09FFF3D48407D0090DC
:1054F0003B48037DC27C817C9BA013F095FF03E0B9
:10550000FA20FDF71CFC40E700BFFFF727FFFEBDB8
:1055100010B513F0CFFE044607232248026802F5B7
:10552000FE720021AFF2BB1013F0A4FA204613F074
:10553000C5FE10BD10B586B0FFF7A3FE10B1012067
:1055400006B010BDFDF7ADFE08B10220F8E700215E
:10555000084611F0DAFB2248FFF7CDFE0020059047
:10556000049003908C488D49002203ABCDE90021C3
:10557000029004AA05A9074806F0BDFB04462CB119
:10558000044806F002FC034806F06CFCFFF7C0FF7D
:105590000020D5E7AC880020580200200C02002033
:1055A000A8010020A40100206D656D705F6D656D20
:1055B0006F7279C4DAB4E6B4F3D0A1CEAA3A256406
:1055C0000D0A000072616D5F68656170C4DAB4E64F
:1055D000B4F3D0A1CEAA3A25640D0A00F808002041
:1055E00094880020D5FDD4DAB2E9D5D2444843509E
:1055F000B7FECEF1C6F72CC7EBC9D4B5C82E2E2EF8
:105600002E2E2E2E2E2E2E2E0D0A0000D5FDD4DA93
:10561000BBF1C8A1B5D8D6B72E2E2E0D0A000000BA
:10562000CDF8BFA8656EB5C44D4143B5D8D6B7CE49
:10563000AA3A2E2E2E2E2E2E2E2E2E2E2E2E2E2E02
:105640002E2E25642E25642E25642E25642E256499
:105650002E25640D0A000000CDA8B9FD4448435032
:10566000BBF1C8A1B5BD4950B5D8D6B72E2E2E2E48
:105670002E2E2E2E2E2E2E2E2E2E25642E25642EF0
:1056800025642E25640D0A00CDA8B9FD4448435079
:10569000BBF1C8A1B5BDD7D3CDF8D1DAC2EB2E2E60
:1056A0002E2E2E2E2E2E2E2E2E2E25642E25642EC0
:1056B00025642E25640D0A00CDA8B9FD4448435049
:1056C000BBF1C8A1B5BDB5C4C4ACC8CFCDF8B9D87D
:1056D0002E2E2E2E2E2E2E2E2E2E25642E25642E90
:1056E00025642E25640D0A0044484350B7FECEF1D0
:1056F000B3ACCAB12CCAB9D3C3BEB2CCAC4950B555
:10570000D8D6B7210D0A0000BEB2CCAC4950B5D8EE
:10571000D6B72E2E2E2E2E2E2E2E2E2E2E2E2E2E78
:105720002E2E2E2E2E2E2E2E2E2E25642E25642E3F
:1057300025642E25640D0A00D7D3CDF8D1DAC2EB4B
:105740002E2E2E2E2E2E2E2E2E2E2E2E2E2E2E2E79
:105750002E2E2E2E2E2E2E2E2E2E25642E25642E0F
:1057600025642E25640D0A00C4ACC8CFCDF8B9D885
:105770002E2E2E2E2E2E2E2E2E2E2E2E2E2E2E2E49
:105780002E2E2E2E2E2E2E2E2E2E25642E25642EDF
:1057900025642E25640D0A006B6B01088F7E0008BE
:1057A000002114E001EB41003D4A02EBC000007D06
:1057B00060B9012001EB4102394B03EBC2021075C5
:1057C00001EB41001A4602EBC0007047491C0A2950
:1057D000E8DB0020F9E710B5014600200FE000EB00
:1057E00040022F4B03EBC2028A4207D1002200EB9A
:1057F00040032B4C04EBC3031A7502E0401C0A283B
:10580000EDDB00BF10BD70B50646FFF7C9FF0546CA
:105810000DB9002070BD234C11E03046616814F0D2
:1058200011F958B9A0682860E0686860E068A8606D
:105830000020E860207C28742846EBE72468002CD0
:10584000EBD12846FFF7C7FF0020E3E710B5044679
:105850002046FFF7C0FF10BD2DE9F04104460F467A
:105860001646D4E90110884203D14FF0FF30BDE85D
:10587000F081D4E90101451AB54200DD3546A26840
:10588000206881182A46384614F01CF8A06828447D
:10589000A0602846EBE70146D1E90102801A704773
:1058A000E0880020240205082DE9F04105460E4657
:1058B0009046304613F09CFF074617B92846BDE8CE
:1058C000F0812C460CE020783178884207D13A46A6
:1058D0003146204613F0ABFF08B92046EFE7641CC1
:1058E000207820B1E01905EB08018842EBD90020AF
:1058F000E5E710B54FF4BA7005F0B8FE044624B1E0
:105900004FF4BA71204614F076F8204610BD10B559
:10591000044684B1206820B12068FFF797FF00207B
:105920002060E06820B1E06805F09CFD0020E060A8
:10593000204605F097FD10BD2DE9F0470746884643
:105940001546994600BF45B900BFEAA34FF4EB7274
:10595000F3A1F7A013F068FD00BF00BF2C8800BFC3
:1059600000BF00BF4B462246414638460BF021F9A6
:105970000646701C68B9B7F8660018B1B7F8680039
:10598000082801DB012404E0204604EBD071C1F3B8
:105990004F04701C08B9012CE2DC2C803046BDE8B5
:1059A000F08770B50446ED480068F0B1EC48006837
:1059B000D8B1EC480068C0B1002512E0E8480068A2
:1059C00050F8251004F12E0014F03CF840B9C02224
:1059D00004F130012846E14B1B689847608570BD93
:1059E0006D1CE04800688542E8DB04F12E0013F0EE
:1059F000FFFEA72804D204F12E0013F0F9FE00E008
:105A0000A72006461222D8A104F1300013F09FFF10
:105A1000324604F12E0104F1420013F053FF06F167
:105A2000120004F130010844D4A10A6802608A8897
:105A3000828089798171002206F1190004F1300118
:105A40000A54084613F0D4FE064600BFB6F5803F60
:105A500008D300BFA7A340F29522CAA1B4A013F0B7
:105A6000E3FC00BF00BF668500BFB8E72DE9F8433F
:105A700005460C464FF0000900BF00BF00276069D3
:105A8000002853D1206830B92146284600F097FB02
:105A90000020BDE8F8832068FFF7FDFE002807DC42
:105AA00000BF00BF2146284600F089FB0020F0E738
:105AB000E06808B126691EE0A87F00F0080010B178
:105AC000E88E0C3800E0E88E460000BFB0B205F06A
:105AD000CDFDE060E06808B1266105E0304606EBE8
