:020000040800F2
:10000000A0D7012005150008C5050008C705000890
:10001000CB050008CF050008D3050008000000004C
:10002000000000000000000000000000D7050008EC
:10003000D90500080000000005610008A1120008B1
:100040001F1500081F1500081F1500081F150008C0
:100050001F1500081F1500081F1500081F150008B0
:10006000B51000081F1500081F1500081F1500080F
:100070001F1500081F1500081F1500081F15000890
:100080001F1500081F1500081F1500081F15000880
:100090001F1500081F1500081F1500081F15000870
:1000A0001F1500081F1500081F1500081F15000860
:1000B0001F150008A11100081F1500081F150008D2
:1000C0001F1500081F1500081F1500081F15000840
:1000D0001F150008711400081F1500081F150008DF
:1000E0001F1500081F1500081F1500081F15000820
:1000F0001F1500081F1500081F1500081F15000810
:100100001F1500081F1500081F1500081F150008FF
:100110001F1500081F1500081F1500081F150008EF
:100120001F1500081F1500081F1500081F150008DF
:100130001F1500081F1500081F1500081F150008CF
:100140001F1500081F1500081F1500081F150008BF
:100150001F1500081F1500081F1500081F150008AF
:100160001F1500081F1500081F1500081F1500089F
:100170001F1500081F1500081F1500081F1500088F
:100180001F1500081F15000800F002F800F06DF8B8
:100190000AA090E8000C82448344AAF10107DA45E2
:1001A00001D100F062F8AFF2090EBAE80F0013F0C7
:1001B000010F18BFFB1A43F001031847C0E2040007
:1001C000E0E204000A444FF0000C10F8013B13F089
:1001D000070408BF10F8014B1D1108BF10F8015BA0
:1001E000641E05D010F8016B641E01F8016BF9D193
:1001F00013F0080F1EBF10F8014BAD1C0C1B09D1EA
:100200006D1E58BF01F801CBFAD505E014F8016B5B
:1002100001F8016B6D1EF9D59142D6D370470000ED
:100220000023002400250026103A28BF78C1FBD8FF
:10023000520728BF30C148BF0B607047642917F0D0
:10024000EF85732918F06B80002070471FB518F0F8
:10025000C9F817F0D7FF04000020002118F0ACF80F
:10026000401C60601FBD10B510BD18F077F8114636
:10027000FFF7ECFF00F0BCF818F095F803B4FFF7B7
:10028000F2FF03BC01F090F810B58AB00446022CCE
:1002900033D19348407B9249097BCDE900109048C7
:1002A000C37A827A8FA102A817F048FD02A993A011
:1002B00017F038FD8A48407D8949097DCDE9001055
:1002C0008748C37C827C8FA102A817F037FD02A962
:1002D0008AA017F027FD8248407C8149097CCDE93E
:1002E00000107F48C37B827B8CA102A817F026FDFB
:1002F00002A982A017F016FD32E07948407B7849C8
:10030000097BCDE900107648C37A827A89A102A8D8
:1003100017F014FD02A979A017F004FD7048407D84
:100320006F49097DCDE900106D48C37C827C87A1AF
:1003300002A817F003FD02A970A017F0F3FC6848AB
:10034000407C6749097CCDE900106548C37B827B0E
:1003500072A102A817F0F2FC02A968A017F0E2FC53
:100360000AB010BD0FE05E48807D30B15C49887DE9
:10037000FFF78AFFFF2005F0FDFC642300221146F1
:10038000104605F0F1FDEEE700F08FFB00BFFEE741
:1003900038B50446002500BF002004F02AFB71494F
:1003A00008604FF48071704804F02CFD6F490860BC
:1003B0006946002003F082FF6D49086003F018FDD4
:1003C00005F078FE054607236A4A0021AFF2470090
:1003D00005F050FA0A23684A0021AFF2770005F0D1
:1003E00049FA0A2005F0C6FC284605F067FE38BD2C
:1003F00010B54FF4A06001F0A5F8A82000F058FF58
:100400004FF4E13000F0DEFF00F0F0F900F00EFAFA
:10041000002003F024F903F0B6FB09E057A017F021
:1004200081FC4FF4966000F094FF59A017F07AFC1D
:1004300006F0FAF80028F1D159A017F073FC07F084
:10044000EFFA0A235C4A0021AFF2BB0005F012FA72
:1004500003F0B6FC002010BD08B50DE06A4600218F
:10046000424B186804F0A2FD0146002003F0A9F9F0
:100470004FF4FA7000F06DFFF0E700BF00BF00BF5F
:1004800000BF00BFFEE71CB519E001A8002303224E
:100490001F2100903648006804F076F80120474993
:1004A0000860322000F055FF00204549C1F8A00245
:1004B00001AB00221F212E48006804F0A5F9E4E7F3
:1004C0000CE0002000F0D0F9044624B12146254874
:1004D000006804F0D6FB0A2000F03BFFF1E70000C3
:1004E00048CA012044484350204950203A25642EF0
:1004F00025642E25642E25640000000025730D0A56
:100500000000000044484350204757203A25642EFD
:1005100025642E25642E2564000000004E455420DD
:100520004D41534B3A25642E25642E25642E2564B7
:10053000000000005374617469632049503A2564D7
:100540002E25642E25642E256400000053746174EA
:1005500069632047573A25642E25642E25642E258D
:100560006400000000000020DC0F002004000020D8
:1005700008000020D8030020D80F00204C57495015
:1005800020496E69742046616C696564210D0A001A
:100590005265747279696E672E2E2E0D0A00000066
:1005A0004C57495020496E697420537563636573D5
:1005B00073210D0A00000000D8020020A0824242F0
:1005C00000804242704700BFFEE700BFFEE700BF69
:1005D000FEE700BFFEE77047704700000CB5002043
:1005E000019000907648006840F4803074490860BB
:1005F00000BF7348006800F4003000900198401C70
:100600000190009818B90198B0F5A04FF1D16C484D
:10061000006800F4003010B10120009001E00020DB
:1006200000900098012846D165484030006840F0AD
:1006300080506349403108606248006840F440409F
:10064000604908605E48083000685D49083108600C
:100650000846006840F4004008600846006840F41E
:10066000A05008605848091F0860081F006840F043
:100670008070091F086000BF5148006800F00070DA
:100680000028F9D040F20570504908604C48083005
:10069000006820F003004A490831086008460068F5
:1006A00040F00200086000BF45480830006800F0D4
:1006B0000C000828F8D10CBD10B54548006840F47E
:1006C0007000434908603E48006840F001003C4922
:1006D000086000203A4908310860394800683D49FF
:1006E0000840374908603C48091D0860081F006839
:1006F00020F48020091F0860002031490C31086077
:10070000FFF76CFF4FF0006031498039086010BD81
:1007100070B500200022022300240221284D083554
:100720002D6805F00C0020B1042806D0082834D12B
:1007300007E02A4D2A4E356033E02A4D284E3560B9
:100740002FE01F4D2D1D2D68C5F380541C4D2D1D10
:100750002D6805F03F0154B1224DB5FBF1F5184E5F
:10076000361D3668C6F3881605FB06F209E01B4DF8
:10077000B5FBF1F5124E361D3668C6F3881605FB3B
:1007800006F20F4D2D1D2D68C5F301456D1C6B0044
:10079000B2FBF3F5124E356003E0104D104E35609C
:1007A00000BF00BF064D08352D68C5F303150E4E7A
:1007B000705D0B4D2D68C540094E356070BD000061
:1007C000003802400070004008544007003C0240DE
:1007D00088ED00E0FFFFF6FE103000240024F40056
:1007E0000C00002000127A00100000201CB501212E
:1007F000084601F03BFAC020009001208DF804006B
:1008000000208DF8060003208DF8050001208DF8EA
:1008100007006946034800F08BFFC021024801F041
:1008200003F81CBD00000240001402401CB5012169
:10083000112001F01BFA1C20009000208DF804000C
:1008400003208DF8050001208DF807006946354822
:1008500000F06EFF0120009002208DF8070069462D
:10086000314800F065FF1CBD10B5044614B10120ED
:100870002E4908702D480078002837D010212948CB
:1008800000F0B8FF78B10821264800F0B3FF50B15E
:100890000421244800F0AEFF28B10121224800F0D5
:1008A000A9FF012822D10A2000F053FD00201F4992
:1008B000087010211B4800F09DFF08B9012010BDF1
:1008C0000821184800F096FF08B90220F7E7042134
:1008D000144800F08FFF08B90320F0E70121124807
:1008E00000F088FF01281BD10420E8E710210D4803
:1008F00000F080FF012813D108210A4800F07AFF98
:1009000001280DD10421074800F074FF012807D108
:100910000121054800F06EFF10B90120034908705D
:100920000020CCE700100240000002402000002020
:1009300070B505460C4600260020FE49086004F00C
:100940001F0040EA0506304600F02EFC04F080004F
:1009500018B1FF2000F028FC06460120F549086088
:10096000304670BD2DE9F04104460D46164600277D
:100970000020F049086005F01F0040EA04073846EF
:1009800000F012FC304600F00FFC0120EA49C1F8EB
:100990009002BDE8F08110B5044604F06000E7491C
:1009A000097888420ED003221F21A020FFF7DAFF2A
:1009B000C4F341121F218020FFF7D4FF04F0600030
:1009C000DE49087010BD10B504462046FFF7E3FF6E
:1009D00021460020FFF7ACFF10BD70B504460D4660
:1009E0002046FFF7D8FF2A4621464020FFF7BAFFEE
:1009F00070BD2DE9F04104460027D220FFF7E3FF48
:100A000005462146D420FFF7E8FF45F00101D2203A
:100A1000FFF7E3FF01E0781C87B2EA20FFF7D3FF7E
:100A200000F0010018B14FF6FF708742F3DB25F0AC
:100A30000101D220FFF7D1FFD820FFF7C4FF0646FF
:100A4000D920FFF7C0FF46EA00263046BDE8F08116
:100A500010B50020FFF7CDFF00F48074201210BD08
:100A600070B505460C4600262946D420FFF7B5FF91
:100A7000E1B2D620FFF7B1FF2112D720FFF7ADFF7B
:100A800001E0701C86B2EA20FFF79DFF00F0010034
:100A900018B14FF6FF708642F3DB70BD10B57220BF
:100AA000FFF791FF00F01F0010BDF0B58BB00024E0
:100AB0000121172001F0DAF80121880301F01FF964
:100AC0004FF47040099002208DF8280001208DF825
:100AD0002B0003208DF8290009A9994800F028FE71
:100AE0004FF47041964800F09FFE102009900120BD
:100AF0008DF8280000208DF82A0003208DF82900A9
:100B000001208DF82B0009A98E4800F011FE10215C
:100B10008C4800F089FE1020099001208DF82800F3
:100B200000208DF82A0003208DF8290001208DF87F
:100B30002B0009A9844800F0FBFD1021824800F039
:100B400073FE0121880301F0EBF80221042001F07B
:100B5000F2F90420099000208DF8280003208DF878
:100B6000290001208DF82B0009A9784800F0E0FD4C
:100B700005220D21724800F066FE05220E21704804
:100B800000F061FE05220F216D4800F05CFE01219E
:100B9000880301F009F900214FF4804001F004F9C5
:100BA0000420029000208DF80C000C208DF80D0020
:100BB00001208DF80E0002A802F0C0FC08208DF87C
:100BC000040003208DF8050002208DF806000120A6
:100BD0008DF8070001A800F0BAFC00F00CFB002122
:100BE0005B4802F0A3FB0020ADF810004FF48270C8
:100BF000ADF812000020ADF81400ADF81600ADF805
:100C000018004FF40070ADF81A003820ADF81C0041
:100C10000020ADF81E000720ADF8200004A94C48C4
:100C200002F08AFA01214A4802F080FB282000F0F5
:100C30001FFB4848056802204049087200213F48D0
:100C400041728172290CC172290A01734573002017
:100C500041490860642000F07CFB01203F49C1F855
:100C600090020A2000F075FBFF2200211046FFF7DA
:100C700079FE04E0601C84B2012000F06AFB1D20B4
:100C8000FFF7A1FE00F0010008B9FA2CF2DBFA2C04
:100C900002DB01200BB0F0BDFFF700FF074639462D
:100CA0002FA017F03FF800202449486000210820B9
:100CB000FFF793FE00210920FFF78FFE10210A2085
:100CC000FFF78BFE1A210B20FFF787FE112104206E
:100CD000FFF783FE1A210520FFF77FFEFF21062084
:100CE000FFF77BFE1F210720FFF777FE00210C2076
:100CF000FFF773FE00210D20FFF76FFEB0213820B3
:100D0000FFF76BFE3F212820FFF767FE30212920E7
:100D1000FFF763FEF9213020FFF75FFEF721312056
:100D2000FFF75BFE0D21C020FFF757FE0021C12019
:100D300022E000009002414200004142DC1300200A
:100D4000000402400008024000000240001002407F
:100D500000380040E8F7FF1F900240420000404288
:100D6000454E4332384A36302056657273696F6E8D
:100D70003A25640D0A000000FFF72FFE3321C22040
:100D8000FFF72BFEEE21CA20FFF727FE0521CB201F
:100D9000FFF723FE1521C420FFF71FFE1221C620F6
:100DA000FFF71BFE0C21C720FFF717FECB48017A87
:100DB000E420FFF712FEC948417AE520FFF70DFE57
:100DC000C648817AE220FFF708FEC448C17AE320D2
:100DD000FFF703FEC148017BE020FFF7FEFDBF489F
:100DE000417BE120FFF7F9FD4FF480710020FFF710
:100DF00037FE4FF480711020FFF732FE1F20FFF7FF
:100E0000CAFDCB221B218020FFF7ACFD04221F214D
:100E10008020FFF7A7FDFFF71BFE08B1B0A000E0A0
:100E2000B2A006463146B4A016F07CFF002031E7A0
:100E300070B505460C460020B54908603A2000F020
:100E4000B3F905E06D1E002000F0AEF92070641CBF
:100E5000002DF7D1002020700120AD49086070BD41
:100E600070B504460D460020A94908607A2000F0BC
:100E70009BF904E0641E287800F096F96D1C002CA4
:100E8000F8D10120A249086070BD70B504460D4636
:100E900005F010F9064600BF1F20FFF794FD00F093
:100EA00008000028F8D140F2EE50844209D904220B
:100EB000C2218020FFF756FD09220E218020FFF776
:100EC00051FD11210220FFF788FD1A210320FFF7B1
:100ED00084FD11202044C1B20620FFF77EFD41F6BB
:100EE00011202044C0F307210720FFF776FD0022E0
:100EF00011467A20FFF736FD29462046FFF7B0FF5E
:100F000008221F218020FFF72DFD1C20FFF75BFD2D
:100F100000F0020020B108221F21A020FFF722FDCF
:100F2000304605F0CBF870BD2DE9F04105460F467F
:100F300005F0C0F880463920FFF745FD10B90020C4
:100F4000BDE8F08100BF1D20FFF73DFD00F004006B
:100F50000028F8D1614801790020FFF73EFD5F4885
:100F60008088C0F307210120FFF737FD00213A20D8
:100F7000FFF7DEFC5949486000213A20FFF7D8FC12
:100F80005649496841EA00205449486000213A2006
:100F9000FFF7CEFC044600213A20FFF7C9FC44EAE3
:100FA0000024241F00213A20FFF7C2FC064600213E
:100FB0003A20FFF7BDFC46EA0026681EA04200D298
:100FC0006C1E06F0800008B9002403E03946204674
:100FD000FFF72EFF414801790C20FFF7FEFC3F4848
:100FE0008088C0F307210D20FFF7F7FC40221E2167
:100FF0008020FFF7B7FC404605F060F820469FE7E9
:1010000070B580221B21A020FFF7ACFC1C20FFF74D
:10101000DAFC044604F0400030B140221C21A0203C
:10102000FFF7A0FC05F08CF904F0080020B10822BD
:101030001C21A020FFF796FC04F00100002823D01B
:1010400001221C21A020FFF78DFC3920FFF7BBFCFB
:1010500006460D20FFF7B7FC05020C20FFF7B3FC96
:101060000543681C85B2E9B20C20FFF7B6FC2912D3
:101070000D20FFF7B2FC40221E218020FFF772FCFA
:10108000314624A016F04EFE04F0020060B10222A8
:101090001C21A020FFF766FC12221D21A020FFF7D3
:1010A00061FC24A016F03EFE80221B211046FFF7B3
:1010B00059FC70BD10B5042002F0B1FA01E0FFF751
:1010C0009FFF1F4800680028F9D01E48006808B933
:1010D000012000E000201B49086010BDDC13002047
:1010E00046756C6C204475706C65780048616C6660
:1010F000204475706C657800454E4332384A36306E
:10110000204475706C65783A25730D0A0000000064
:1011100090024142BDD3CAD5B4EDCEF3A3A1BDD355
:10112000CAD5B5BDCAFDBEDDB0FCB8F6CAFD3A25CC
:10113000640D0A00B7A2CBCDB4EDCEF3210D0A00A9
:1011400008024242980240427FB505460C46012102
:10115000022000F0D4FD0295ADF804400020ADF867
:101160000C00ADF8060001A90E4801F0F4F90122C7
:1011700011460C4801F090FE1D208DF80000012062
:101180008DF8010003208DF8020001208DF8030086
:10119000684600F0DCF90121024801F065FA7FBDE4
:1011A000704700000004004070B50546002405E0CB
:1011B000601CC4B2C82C01DD002070BD022135487E
:1011C00002F07EF90028F3D02946324802F02FF9C8
:1011D000002405E0601CC4B2C82C01DD0020ECE74F
:1011E00001212C4802F06CF90028F3D0294802F0C4
:1011F0001BF9C0B2E1E71CB50121022000F036FD69
:101200000121880300F07BFD4FF470400090022024
:101210008DF8040001208DF8070003208DF80500EB
:1012200069461D4800F084FA4FF470411A4800F0F6
:10123000FBFA0020194908804FF482704880002092
:1012400088800220C880012008814002488138201F
:1012500088810020C881072008820E4801F06CFFB9
:1012600001210C4802F062F8FF20FFF79DFF1CBD32
:1012700010B50446074800884FF6C7710840054975
:10128000088008460088204308800121014802F0B8
:101290004DF810BD0038004000040240EC1300205F
:1012A00010B502F086FC02F0C2FD02F09DFC10BDFC
:1012B00070B504466FF0040000F096F9E11704EBF6
:1012C0005171C1F3C701344A1170E11704EB517138
:1012D000CD1041F2883045430520304908804FF059
:1012E000E020006940F002004FF0E021086108466C
:1012F0004561006940F00100086170BD2DE9F047CB
:10130000074600264FF0E020D0F8149022480078DD
:1013100007FB00F800BF02F0E5FC4FF0E020856914
:1013200011E04FF0E0208469AC420CD0AC4202D214
:10133000281B064403E0A9EB040028440644254684
:10134000464500D300E0ECE700BF02F010FDBDE829
:10135000F08770B5044612480078012814D111486E
:10136000007888B90D480088844206DB0B48008865
:1013700094FBF0F5284604F0C5FD0848008894FB6E
:10138000F0F100FB114084B24FF47A7104FB01F0DC
:10139000FFF7B4FF70BD00002200002024000020F1
:1013A0008A0000207E000020014600BF704700BF79
:1013B000504A128802F04002002AF9D0C2B24D4BC6
:1013C0009A80704710B588B004460121084600F0A5
:1013D0004DFC0121102000F0A3FC07220921464802
:1013E00000F031FA07220A21434800F02CFA4FF4AA
:1013F000C060069002208DF81C008DF81D000020B2
:101400008DF81E0001208DF81F0006A93A4800F053
:101410008FF902940020ADF80C00ADF80E00ADF885
:101420001000ADF814000C20ADF8120002A93148EC
:1014300000F021FE01212F4800F0A5FE40212D489B
:1014400000F089FF012240F225512A4800F051FFA7
:1014500025208DF8040003208DF805008DF8060086
:1014600001208DF8070001A800F071F808B010BD48
:1014700010B502F09EFB40F225511E4800F074FFAB
:1014800010B31C4800F0AEFEC4B21C48008800F443
:101490000040C8B91948008800F4804060B10A2CA7
:1014A00003D000201549088020E01448008840F44B
:1014B00000401249088019E00D2C06D10F48008821
:1014C00040F480400D49088010E00C480088C0F3CB
:1014D0000D000B490C5409480088401C074908803E
:1014E00008460088C72801DD0020088002F07CFB48
:1014F00010BD000000100140000002402C00002040
:10150000FE1300200948804709480047FEE7FEE730
:10151000FEE7FEE7FEE7FEE7FEE7FEE7FEE7FEE7A3
:1015200004480549054A064B70470000B906000803
:1015300089010008A0D10120A0D70120A0D301205B
:10154000A0D3012032490143324A1160704770B57F
:10155000002100230F22C4781CB32E4C246804F40D
:10156000E064C4F5E064C4F30721C1F10404E3B20C
:101570000A4144789C40E1B28478144021430C072E
:10158000210E254C05786155047804F01F050124CF
:10159000AC4005786D11AD0005F1E025C5F80041BE
:1015A00009E0047804F01F050124AC401B4D0678C7
:1015B000761145F8264070BD194A0A400243154B82
:1015C0001B1F1A60704739B1124A121D126802437C
:1015D000104B1B1D1A6006E00E4A121D1268824352
:1015E0000C4B1B1D1A607047042808D14FF0E021F6
:1015F000096941F004014FF0E022116107E04FF06A
:10160000E021096921F004014FF0E02211617047E7
:101610000000FA050CED00E000E400E080E100E0ED
:1016200080FFFF1F10B504469848844208D101216D
:10163000084600F086FB0021012000F082FB76E0E6
:101640009348844208D10121022000F07AFB002156
:10165000022000F076FB6AE08E48844208D1012126
:10166000042000F06EFB0021042000F06AFB5EE025
:101670008948844208D10121082000F062FB002142
:10168000082000F05EFB52E08448844208D101212A
:10169000102000F056FB0021102000F052FB46E025
:1016A0007F48844208D10121202000F04AFB00211C
:1016B000202000F046FB3AE07A48844208D101211C
:1016C000402000F03EFB0021402000F03AFB2EE0DD
:1016D0007548844208D10121802000F032FB0021AE
:1016E000802000F02EFB22E07048844208D10121C6
:1016F000801500F026FB0021A01500F022FB16E06B
:101700006B48844208D10121401500F01AFB0021EA
:10171000601500F016FB0AE06648844207D10121FB
:10172000001500F00EFB0021201500F00AFB10BD93
:10173000F0B50A4600210023002400BF3DE001254A
:1017400005FA01F3156805EA03049C4234D10568E3
:101750004F000326BE40B543056015794E00B540E5
:101760000668354305601579012D02D01579022DE3
:1017700016D185684F000326BE40B5438560557974
:101780004E00B540866835438560456801268E4029
:10179000B5434560456896798E40B6B2354345609D
:1017A000C5684F000326BE40B543C560D5794E00DD
:1017B000B540C6683543C560491C1029BFD3F0BD8C
:1017C0004FF6FF7101600021017141718171C1719A
:1017D000704708B54FF480320092009A0A43009295
:1017E000009AC261C161009AC261C2690092C26975
:1017F000009208BD0246002013690B400BB1012086
:1018000000E0002070470146086980B27047024638
:10181000002053690B400BB1012000E0002070470D
:101820000146486980B27047018370474183704721
:101830000AB1018300E0418370474161704742690A
:101840004A4042617047F0B5002300244D07ED0E79
:1018500002FA05F3CE1000F1200555F826504E0788
:10186000F70E0F26BE40B543CF1000F1200646F814
:101870002750CE1000F1200555F8265045EA030404
:10188000CE1000F1200545F82640F0BD00000240D2
:101890000004024000080240000C02400010024018
:1018A0000014024000180240001C024000200240C8
:1018B0000024024000280240F948006840F001007E
:1018C000F74908600020F64908310860F4480068CC
:1018D000F4490840F2490860F348091D0860F348DC
:1018E000EF4984310860F0481038091D0860EC4861
:1018F000006820F48020EA4908600020E8490C31A3
:101900000860E7498C31086070470021E44A921C66
:10191000117011460870704710B50146002200236F
:1019200000204A11012A02D1DD4C236808E0022A76
:1019300003D1DB4C7034236802E0D94C7434236843
:1019400001F01F02012494401C400CB1012000E072
:10195000002010BD38B5002000900024002500BFF5
:101960003120FFF7D9FF05460098401C00900098F1
:10197000B0F5A04F01D0002DF2D03120FFF7CCFF01
:1019800008B1012400E00024204638BD01460020B3
:10199000C34A106820F0F80040EAC10010607047A8
:1019A000C349086070470021BD4A70321170117040
:1019B000012802D004280AD104E00121B84A70327B
:1019C000117005E00521B64A7032117000E000BFC9
:1019D00000BF7047B7490860704770B5049C41EA82
:1019E00082150126C6EB530645EA0645054345EA3E
:1019F0000465AB4E361D356070BDAD490866704755
:101A0000820142EA0172A64B84331A607047A849EA
:101A10008866704710B5830143EA016343EA0273A5
:101A20009F4C8834236010BDA14908677047A049C6
:101A3000C864704702460020994B0833186820F0AC
:101A4000EC6042EA01031843954B08331860704775
:101A500002460020924B0833186820F0784042EA92
:101A6000010318438E4B083318607047014600206D
:101A70008B4A0832106820F003000843106070475A
:101A800087480830006800F00C00704701460020CD
:101A9000834A0832106820F0F00008431060704755
:101AA000014600207E4A0832106820F4E0500843C6
:101AB0001060704701460020794A0832106820F40F
:101AC000604040EAC10010607047F0B5002100227C
:101AD0000024022500260223714F08373F6807F0D3
:101AE0000C0121B1042905D0082937D105E0724F36
:101AF000076036E0714F076033E0694F3F1D3F6874
:101B0000C7F38056664F3F1D3F6807F03F036EB135
:101B10006A4FB7FBF3F7DFF888C10CF1040CDCF86F
:101B200000C0CCF3881C07FB0CF40CE0624FB7FB41
:101B3000F3F7DFF86CC10CF1040CDCF800C0CCF357
:101B4000881C07FB0CF4564F3F1D3F68C7F3014745
:101B50007F1C7D00B4FBF5F7076002E0564F07607D
:101B600000BF00BF4E4F08373F6807F0F00109097A
:101B7000534F7A5C0768D7404760494F08373F6842
:101B800007F4E051890A4E4F7A5C4768D740876076
:101B9000434F08373F6807F46041490B484F7A5C70
:101BA0004768D740C760F0BD002100F44072B2F52D
:101BB000407F0AD13A4A0832116821F4F811414AAB
:101BC00002401143364A08321160354A70321268B9
:101BD000C0F30B031A43324B70331A607047354918
:101BE00044390860704733494039086070473649C6
:101BF0000860704701460020294A8C32106820F0A6
:101C00001F004A1E1043264A8C321060704701465E
:101C10000020234A8C32106820F4F8504A1E40EA13
:101C200002201F4A8C3210607047014600201C4A77
:101C30008C32106820F44010084310607047014651
:101C40000020174A8C32106820F4400008431060CE
:101C5000704701460020124A8C32106820F4403050
:101C600008431060704719490860704739B10C4A41
:101C70003032126802430A4B30331A6006E0084AD9
:101C8000303212688243064B30331A607047F9B124
:101C9000034A343212680243014B34331A601CE0A9
:101CA00000380240FFFFF6EA103000240030002028
:101CB00000004742800E47420024F40000127A00E0
:101CC0002E000020FFFCFF0F5C014742E01147425D
:101CD0008F4A126882438E4B1A60704739B18C4A22
:101CE000121D126802438A4B1B1D1A6006E0884AC7
:101CF000121D12688243864B1B1D1A60704739B152
:101D0000834A0C3212680243814B0C331A6006E09E
:101D10007F4A0C32126882437D4B0C331A60704745
:101D200039B17B4A103212680243794B10331A6082
:101D300006E0774A103212688243754B10331A60FE
:101D4000704739B1724A243A12680243704B243BFF
:101D50001A6006E06E4A243A126882436C4B243BB8
:101D60001A60704739B16A4A203A12680243684BD8
:101D7000203B1A6006E0664A203A12688243644BB0
:101D8000203B1A60704739B1614A1C3A126802431D
:101D90005F4B1C3B1A6006E05D4A1C3A12688243A6
:101DA0005B4B1C3B1A60704739B1594A143A1268B0
:101DB0000243574B143B1A6006E0554A143A126826
:101DC0008243534B143B1A60704739B1504A103A62
:101DD000126802434E4B103B1A6006E04C4A103A20
:101DE000126882434A4B103B1A60704739B1484A27
:101DF0001C3212680243464B1C331A6006E0444A08
:101E00001C3212688243424B1C331A60704739B14E
:101E10003F4A2032126802433D4B20331A6006E0ED
:101E20003B4A203212688243394B20331A60704794
:101E300039B1374A243212680243354B24331A60D1
:101E400006E0334A243212688243314B24331A604D
:101E5000704739B12E4A2C32126802432C4B2C3376
:101E60001A6006E02A4A2C3212688243284B2C332F
:101E70001A60704739B1264A303212680243244B47
:101E800030331A6006E0224A303212688243204B17
:101E900030331A607047012808D11D493C31096868
:101EA00041F008011A4A3C32116007E018493C3100
:101EB000096821F00801164A3C321160704739B1B7
:101EC000134A273A12780243114B273B1A7006E057
:101ED0000F4A273A127882430D4B273B1A707047FE
:101EE0000B484030006840F080700949403108607C
:101EF000704701460020064A283A12680A400AB193
:101F0000012000E000207047014926390870704721
:101F10003438024010B501218803FFF756FF002135
:101F20004FF48040FFF751FF10BD1C490860704717
:101F30001B490862704730B500228B071C0F0F2326
:101F400003FA04F2154B08338C1053F824309343F2
:101F5000124C08348D1044F8253023468C1053F869
:101F600024308C07240F00FA04F423430B4C08346C
:101F70008D1044F8253030BD0949DC3108607047C8
:101F8000084908607047002004492031096801F4BD
:101F9000807109B1012000E0002070470038014045
:101FA000000027420004274210B50446FA48844244
:101FB00008D101211020FFF708FF00211020FFF7B2
:101FC00004FF57E0F548844209D101214804FFF796
:101FD000EBFE00214FF40030FFF7E6FE4AE0F04848
:101FE000844209D101218804FFF7DEFE00214FF46D
:101FF0008020FFF7D9FE3DE0EA48844209D1012163
:10200000C804FFF7D1FE00214FF40020FFF7CCFEFB
:1020100030E0E548844209D101210805FFF7C4FEFC
:1020200000214FF48010FFF7BFFE23E0DF48844219
:1020300008D101212020FFF7C8FE00212020FFF752
:10204000C4FE17E0DA48844209D101218807FFF76E
:10205000ABFE00214FF08040FFF7A6FE0AE0D54816
:10206000844207D101214005FFF79EFE0021600553
:10207000FFF79AFE10BD2DE9FF4705460E460024E6
:10208000A14600BFA046B08900B100BF2C8A24F44D
:102090004054F08804432C82AC8941F20C608443A4
:1020A000B08831890843718908430443AC81AC8A04
:1020B00024F44074B0890443AC826846FFF705FD00
:1020C000B548854202D0B948854202D1DDF80C906E
:1020D00001E0DDF80890A88900F4004040B109EB68
:1020E000C90000EB091031684900B0FBF1F707E0C7
:1020F00009EBC90000EB091031688900B0FBF1F76A
:102100006420B7FBF0F004012009642101FB107882
:10211000A88900F4004040B1322000EBC800B0FBB9
:10212000F1F000F00700044308E0322000EB081053
:102130006421B0FBF1F000F00F0004432C81BDE8F6
:10214000FF874FF41651016000218180C180018119
:102150000C21418100218181704710B50246002089
:10216000108A20F470600B884C8823438C882343AA
:10217000CC8823431843108210BD00210180418088
:102180008180C180704721B1828942F400528281EE
:1021900004E082894DF6FF731A4082817047028BFA
:1021A00002F47F420283028B0A430283704721B10B
:1021B000828942F40042828103E08289C2F30E02E6
:1021C0008281704721B1828A42F40062828204E0F7
:1021D000828A4FF2FF731A4082827047C1F308026D
:1021E0008280704701468888C0F308007047028AE1
:1021F0004FF6F0731A400282028A0A430282704745
:1022000021B1828942F00202828104E082894FF684
:10221000FD731A408281704782894FF2FF731A4022
:10222000828182890A4382817047028A4FF6DF7376
:102230001A400282028A0A430282704721B1028A4E
:1022400042F48042028204E0028A4BF6FF731A4095
:1022500002827047818941F001018181704721B17B
:10226000828A42F00802828204E0828A4FF6F77383
:102270001A4082827047028BD2B20283028B42EAFA
:1022800001220283704721B1828A42F020028282B9
:1022900004E0828A4FF6DF731A408282704721B1D0
:1022A000828A42F01002828204E0828A4FF6EF7343
:1022B0001A4082827047828A4FF6FB731A408282EC
:1022C000828A0A438282704721B1828A42F00202E6
:1022D000828204E0828A4FF6FD731A408282704740
:1022E0001AB1838A0B43838202E0838A8B43838201
:1022F0007047F0B50346002400260025002040F674
:102300006A17B94200D100BF1846C1F3421401F068
:102310001F06012707FA06F5012C01D10C3004E055
:10232000022C01D1103000E014301AB107682F439D
:10233000076002E00768AF430760F0BD0246002077
:10234000B1F5007F00D100BF13880B400BB1012015
:1023500000E00020704701F40072B2F5007F00D168
:1023600000BFCA430280704770B5024600240023B4
:102370000025002040F66A16B14200D100BFC1F32B
:10238000421501F01F03012606FA03F3012D13D1B4
:102390009689334017E000000010014000440040DF
:1023A00000480040004C0040005000400014014034
:1023B00000780040007C0040022D02D1168A334094
:1023C00001E0968A33400C12012606FA04F41688BE
:1023D000344013B10CB1012000E0002070BD10B5F5
:1023E0000022002340F66A14A14200D100BF0A1265
:1023F00001249440A3B2DC43048010BD10B5044610
:10240000FE48844208D101210846FFF7DEFC002186
:102410000120FFF7DAFC9DE0B4F1804F08D10121E3
:102420000846FFF7C1FC00210120FFF7BDFC91E049
:10243000F348844208D101210220FFF7B5FC0021B6
:102440000220FFF7B1FC85E0EE48844208D101216B
:102450000420FFF7A9FC00210420FFF7A5FC79E088
:10246000E948844208D101210820FFF79DFC0021A2
:102470000820FFF799FC6DE0E448844208D101216F
:102480001020FFF791FC00211020FFF78DFC61E088
:10249000DF48844208D101212020FFF785FC00217C
:1024A0002020FFF781FC55E0DA48844208D1012161
:1024B0000220FFF78AFC00210220FFF786FC49E09A
:1024C000D548844209D101210804FFF77EFC002190
:1024D0004FF48030FFF779FC3CE0D048844209D1CA
:1024E00001214804FFF771FC00214FF40030FFF791
:1024F0006CFC2FE0CA48844209D101218804FFF70F
:1025000064FC00214FF48020FFF75FFC22E0C54807
:10251000844208D101214020FFF746FC00214020E1
:10252000FFF742FC16E0C048844208D10121802018
:10253000FFF73AFC00218020FFF736FC0AE0BB4899
:10254000844207D101218015FFF72EFC0021A01540
:10255000FFF72AFC10BD00220288A84B98420ED03B
:10256000AC4B98420BD0B0F1804F08D0A44B9842AE
:1025700005D0A44B984202D0A34B984204D14FF609
:102580008F731A404B881A43A04B984207D0A04B38
:10259000984204D04FF6FF431A400B891A43028039
:1025A0004B68C3620B880385944B984202D0994BC9
:1025B000984201D18B7A03860123838270474FF0C2
:1025C000FF314160002101800181418081727047AB
:1025D0000185828270470A46002101884FF68F7379
:1025E000194011430180704741627047C1627047D2
:1025F0000146486A70470146088D704721B102883C
:1026000042F00202028004E002884FF6FD731A4095
:102610000280704721B1028842F00402028004E087
:1026200002884FF6FB731A400280704721B102887E
:1026300042F08002028004E002884FF67F731A4065
:102640000280704702884FF6F7731A4002800288B2
:102650000A430280704702884FF6FF431A40028007
:1026600002880A430280704721B1028842F00102C9
:10267000028004E002884FF6FE731A400280704721
:1026800070B5002400220023058C4FF6FE763540FD
:102690000584028C8388048B4FF68F752C40B51E01
:1026A0002C400D882C43751E2A408D892A434D8865
:1026B0002A43524DA84202D0564DA84213D14FF69C
:1026C000F7752A40CD892A434FF6FB752A408D883D
:1026D0002A434FF6FF652B404FF6FF552B400D8ADE
:1026E0002B434D8A2B43838004838D68456302848A
:1026F00070BD70B5002400220023058C4FF6EF76E4
:1027000035400584028C8388048B48F6FF752C4085
:102710004FF6FF452C400D884FF6FF7606EA05255B
:102720002C434FF6DF752A408D8906EA05152A43AA
:102730004D8806EA05152A43304DA84202D0354D92
:10274000A8421DD14FF67F752A40CD894FF6FF76FE
:1027500006EA05152A434FF6BF752A408D8806EA1A
:1027600005152A434FF6FF352B404FF2FF752B40DE
:102770000D8A06EA85052B434D8A06EA85052B431B
:10278000838004838D688563028470BD70B50024E6
:1027900000220023058C4FF6FF6635400584028C2D
:1027A0008388848B4FF68F752C404FF6FC752C4038
:1027B0000D882C434FF6FF552A408D894FF6FF7642
:1027C00006EA05252A434D8806EA05252A430B4DCE
:1027D000A84202D00F4DA84238D14FF2FF752A40CF
:1027E000CD894FF6FF7606EA05252A434FF6FF35D9
:1027F0002A408D8806EA05252A4319E00000014099
:102800000004004000080040000C004000100040A0
:102810000014004000040140004001400044014019
:102820000048014000180040001C0040002000400B
:102830004EF6FF752B404DF6FF752B400D8A06EACC
:1028400005152B434D8A06EA05152B4383808483A7
:102850008D68C563028470BD70B50022002300241A
:10286000058C4EF6FF7635400584038C8488828B78
:1028700048F6FF752A404FF6FF452A400D884FF66F
:10288000FF7606EA05252A434DF6FF752B408D8914
:1028900006EA05352B434D8806EA05352B43FE4DE8
:1028A000A84202D0FD4DA84208D14BF6FF752C403E
:1028B0000D8A4FF6FF7606EA85152C4384808283C5
:1028C0008D680564038470BD002101804180818092
:1028D00081608181C18101824182704770B5034668
:1028E000002000241846183001258D40ACB21D8C04
:1028F000A5431D8409B108290AD100EB61000568D0
:102900004FF68F76354005600568154305600FE08A
:102910000D1FC5F34E052844056848F6FF7635407F
:10292000056005684FF6FF7606EA02263543056026
:1029300070BD4163704781637047C1637047016434
:1029400070470A460021018B4FF68F7319401143DF
:10295000018370470A460021018B48F6FF73194036
:102960004FF6FF7303EA02231943018370470A46B7
:102970000021818B4FF68F7319401143818370477B
:102980000A460021818B48F6FF7319404FF6FF730A
:1029900003EA02231943818370470A460021018B11
:1029A0004FF6F77319401143018370470A4600211F
:1029B000018B4FF2FF7319404FF6FF7303EA0223B6
:1029C0001943018370470A460021818B4FF6F77344
:1029D00019401143818370470A460021818B4FF2D1
:1029E000FF7319404FF6FF7303EA022319438183F3
:1029F00070470A460021018B4FF6FB7319401143C3
:102A0000018370470A460021018B4FF6FF331940BE
:102A10004FF6FF7303EA02231943018370470A4606
:102A20000021818B4FF6FB7319401143818370475E
:102A30000A460021818B4FF6FF3319404FF6FF7392
:102A400003EA02231943818370470A460021018B60
:102A50004FF67F7319401143018370470A460021E6
:102A6000018BC1F30E014FF6FF7303EA02231943F2
:102A7000018370470A460021818B4FF67F7319400E
:102A80001143818370470A460021818BC1F30E01F7
:102A90004FF6FF7303EA02231943818370470A4606
:102AA0000021018C4FF6FD731940114301847047DA
:102AB0000A460021018C4FF6F77319401143018437
:102AC00070470A460021018C4FF6DF7319404FF61C
:102AD000FF7303EA02131943018470470A46002179
:102AE000018C4FF67F7319404FF6FF7303EA021310
:102AF0001943018470470A460021018C4FF6FF53A9
:102B000019404FF6FF7303EA02231943018470470B
:102B10000A460021018C4FF2FF7319404FF6FF73F4
:102B200003EA02231943018470470A460021018CFD
:102B30004DF6FF7319404FF6FF7303EA0233194352
:102B40000184704730B5002301248C40A3B2048C6B
:102B50009C430484048C02FA01F5ADB22C43048436
:102B600030BD30B5002304248C40A3B2048C9C43B8
:102B70000484048C02FA01F5ADB22C43048430BD08
:102B8000828B4FF2FF331A408283828B4FF6FF73A2
:102B900003EA01231A4382837047F0B50C461546B9
:102BA000002100220026078C4EF6FF7C07EA0C0766
:102BB0000784818B028C4FF6FF7707EA043640F6D4
:102BC000FF4739404FF6FF7707EA052739434FF6AD
:102BD000FF7707EA0337394345F6FF773A4046F473
:102BE00080573A4381830284F0BD828B4FF6F373A2
:102BF0001A408283828B0A4382837047F0B50C4669
:102C00001546002100220026078C4FF6FF6C07EACC
:102C10000C070784818B028C4FF6FF7707EA0426A6
:102C20004FF60C7739404FF6FF7707EA03172F432B
:102C300039434FF2FF573A4046F480773A43818355
:102C40000284F0BD028B4FF2FF331A400283028BE5
:102C50004FF6FF7303EA01231A4302837047F0B56E
:102C60000C461546002100220026078C4FF6EF7C0B
:102C700007EA0C070784018B028C4FF6FF7707EAFF
:102C8000041640F6FF4739404FF6FF7707EA03374F
:102C900039434FF6FF7703E0000001400004014094
:102CA00007EA052739434FF65F773A4046F01007A9
:102CB0003A4301830284F0BD028B4FF6F3731A404E
:102CC0000283028B0A4302837047F0B50C46154617
:102CD00000210022068C4FF6FE773E400684018BD1
:102CE000028C4FF60C7631407E1C06EA03162E430A
:102CF00031434FF6F576324044F00106324301830A
:102D00000284F0BD70B505460C46208850B9238971
:102D1000A28861882846FFF7D8FFE1882846FFF798
:102D2000CBFF25E0208804280AD12389A288618866
:102D30002846FFF794FFE1882846FFF783FF17E056
:102D4000208808280AD12389A28861882846FFF7AD
:102D500055FFE1882846FFF748FF09E02389A2884C
:102D600061882846FFF719FFE1882846FFF708FF2A
:102D700070BD002101804180012181800021C1803E
:102D8000018170472DE9F04105460C4600260127D8
:102D9000608808B9022600E00026A088012801D139
:102DA000022700E001272088A0B92389A288618832
:102DB0002846FFF78AFFE1882846FFF77DFF238931
:102DC0003A4631462846FFF74AFFE1882846FFF792
:102DD00039FF13E02389A28861882846FFF73FFF67
:102DE000E1882846FFF72EFF23893A4631462846D8
:102DF000FFF76BFFE1882846FFF75EFFBDE8F08133
:102E00000146486B70470146886B70470146C86BA6
:102E100070470146086C70470A884B881A438B88B4
:102E20001A43CB881A430B891A434B891A438B895F
:102E30001A43A0F84420704700210180418081801E
:102E4000C180018141818181704731B1B0F8442056
:102E500042F40042A0F8442005E0B0F84420C2F358
:102E60000E02A0F84420704721B1828842F004028B
:102E7000828004E082884FF6FB731A40828070479C
:102E800021B1828842F00102828004E082884FF6FC
:102E9000FE731A40828070471AB183890B43838185
:102EA00002E083898B4383817047818270470246A9
:102EB0000020138A0B400BB1012000E00020704776
:102EC000CA430282704730B5024600200023002426
:102ED000158A05EA0103958905EA010413B10CB1CD
:102EE000012000E0002030BDCA430282704741EA61
:102EF0000203A0F8483070471AB183890B438381DD
:102F000002E083898B438381704721B1828842F03C
:102F10000802828004E082884FF6F7731A408280AC
:102F2000704701894FF6F8721140018170470A46D7
:102F3000002101894FF68F731940114301817047B9
:102F400030B504460D4629462046FFF7F0FF20899C
:102F500040F00700208130BD2DE9F04104460D46C8
:102F600016461F46602D06D13B46012231462046BB
:102F7000FFF775FE05E03B46012231462046FFF78C
:102F8000A4FE29462046FFF7D2FF208940F0070023
:102F90002081BDE8F08130B50C4600210189C9B21D
:102FA0004FF6FF7505EA03251543254329430181A3
:102FB00030BD2DE9F04105460E46174698460024DF
:102FC00043463A4631462846FFF7E5FF2C894FF63F
:102FD000F870044044F007044FF68F70044044F04A
:102FE00070042C81BDE8F081F0B504460D4616460C
:102FF0001F463B46324629462046FFF7CCFF208934
:1030000040F480402081F0BD82884FF68F731A40D3
:10301000828082880A438280704702894FF6F87363
:103020001A40028102890A430281704702894FF6E1
:103030007F731A40028102890A4302817047F0B50A
:103040000C4615461E460021002200230189028BF2
:10305000038C4FF6F877394021434FF6FC473A404E
:1030600040F201173A434FF6DD773B404FF6FF77CA
:1030700007EA06172F433B43018102830384F0BD17
:1030800021B1828842F08002828004E082884FF67B
:103090007F731A4082807047A0F85010704700007C
:1030A00010B50446FB48844208D101218014FEF784
:1030B0008CFE0021A014FEF788FE3CE0F648844216
:1030C00008D101210014FEF76FFE00212014FEF745
:1030D0006BFE30E0F148844208D10121C013FEF7B5
:1030E00063FE0021E013FEF75FFE24E0EC4884421B
:1030F00008D101214014FEF768FE00216014FEF79C
:1031000064FE18E0E748844209D101210805FEF772
:103110005CFE00214FF48010FEF757FE0BE0E24802
:10312000844208D101214805FEF74FFE00214FF4EB
:103130000010FEF74AFE10BD10B50022028802F40E
:1031400041520B884C8823438C882343CC882343EB
:103150000C8923434C8923438C892343CC89234303
:103160001A430280838B4FF2FF74234083830B8AC0
:10317000038210BD2DE9F04F0025022300244FF0FB
:10318000010900220026002794469046B0F81CA0B2
:103190004FF2400B0AEA0B0AA0F81CA04FF0020AFB
:1031A000A0F820A0858BD1F808A0BAF1020F01D1B8
:1031B00000BF82E0B1F804A0BAF1000F02D14FF0D5
:1031C000010901E04FF00209DFF8E0A2DAF800A0FF
:1031D0000AF4000ABAF1000F09D0DFF8D0A2DAF839
:1031E00000A02AF4000ADFF8C4B2CBF800A0DFF890
:1031F000BCA20AF17C0ADAF800A0CAF3881CDFF846
:10320000ACA20AF17C0ADAF800A0CAF30278DFF86F
:103210009CA2AAF1040ADAF800A00AF03F07DFF83E
:103220008CA2AAF1040ADAF800A00AF4800ABAF51E
:10323000800F08D1DFF878A2BAFBF7FA0AFB0CFA84
:10324000BAFBF8F607E0DFF86CA2BAFBF7FA0AFB64
:103250000CFABAFBF8F6B1F806A0BAF5007F0ED169
:103260004FEA162A0AEB8A0A4FEA4A0AD1F808B04E
:10327000BAFBFBFA0AF1050A1FFA8AF20FE04FEADD
:10328000491AB6FBFAFA0AEB8A0A4FEA4A0AD1F857
:1032900008B0BAFBFBFA0AF1050A1FFA8AF24FF0EE
:1032A0000A0AB2FBFAF202F00104A2EB040ACAF322
:1032B0004F034FF6FF7A0AEA0424022B01DBFF2BAF
:1032C00001DD02230024B1F806A04AEA040A4AEA12
:1032D000030AA0F820A0B1F804A0B1F80CB04AEAA3
:1032E0000B0AB1F802B04AEA0B0AB1F800B04AEA98
:1032F0000B0A4AF4006A4AEA05058583BDE8F08FA7
:103300000021018041808180C180018141818181D2
:10331000C1810721018270470021018041808180A5
:10332000C1800221816000218181704721B1028822
:1033300042F04002028004E002884FF6BF731A4058
:103340000280704721B1828B42F48062828304E064
:10335000828B4FF6FF331A408283704702884FF208
:10336000FF731A40028002880A4302807047B1F559
:10337000804F04D1028842F48042028004E0028837
:103380004BF6FF731A40028070474FF6FF6291427E
:1033900004D0028842F48072028004E002884FF672
:1033A000FF631A400280704721B1828842F0040214
:1033B000828004E082884FF6FB731A408280704757
:1033C00021B1828842F01002828004E082884FF6A8
:1033D000EF731A408280704730B500220023848B3F
:1033E0004FF240052C40848302240484828B0C8895
:1033F000B4F5007F01D00C8814B94FF4807308E055
:103400000C88B4F5407F03D00C88B4F5807F00D1E0
:1034100000238C888D892C434D882C431C4344F415
:1034200000642243828330BD0146888970478181D0
:10343000704721B1028842F40052028004E0028801
:103440004DF6FF731A4002807047018841F48051A5
:103450000180704702460020012901D0108B00E056
:10346000908A70470146088A70471AB183880B43D7
:10347000838002E083888B438380704730B50024CB
:1034800000230C110125A540ABB2AAB185881D43CC
:10349000858014E00030014000380040003C0040CE
:1034A00000340140005001400054014008380240FF
:1034B00000127A000024F40085889D43858030BD89
:1034C0000246002013890B400BB1012000E00020D0
:1034D0007047CA4302817047F0B5024600200024BD
:1034E0000023002501F00F070126BE40B4B20B11E6
:1034F00001269E40B3B2968806EA03051689264047
:1035000016B10DB1012000E00020F0BD10B5002281
:1035100001F00F040123A3409AB2D343038110BDED
:10352000002041490860091D0860091D0860091D47
:1035300008603E483C4914310860704700213A4910
:103540008279002A3AD00A46126803689A430B46E9
:103550001A600A1D126803689A430B1D1A600279EB
:1035600011440A6803681A430A602F4A0832126835
:1035700003689A432C4B08331A601A1D12680368BB
:103580009A43294B0C331A604279102A0ED11A1F24
:10359000126803681A43244B08331A601A1D126814
:1035A00003681A43204B0C331A600DE01E49427920
:1035B00011440A6803681A430A6005E0027911445D
:1035C0000A6803689A430A6070470021016001712C
:1035D0000C21417100218171704713491031096834
:1035E0000143114A103211607047014600200E4A13
:1035F000143212680A400AB1012000E0002070472E
:10360000094914310860704701460020064A143207
:1036100012680A400AB1012000E000207047024908
:103620001431086070470000003C0140FFFF7F003C
:1036300070B503460C4603E014F8015B03F8015B28
:10364000151EA2F10102F7D170BD30B5034601E0AD
:1036500003F8011B141EA2F10102F9D130BD10B50F
:1036600004467A4951F824104A00794951F8240057
:103670000021FFF7EAFF774951F8242074490C39FB
:1036800051F824000021FFF7E0FF012170480C30C1
:10369000015510BD10B501460023002207E06C481B
:1036A00050F8210030F8120000B15B1C521C674832
:1036B00050F821009042F2D864205843634C54F8EB
:1036C0002140B0FBF4F0C0B210BD2DE9F047044634
:1036D0000F460025A9465E480C30005D20B95C48C5
:1036E00014380168204688471FB94FF0FF30BDE805
:1036F000F087594850F82400B7FBF0F6564850F8C8
:103700002400B7FBF0F100FB117000B1761C4F48AC
:1037100050F82400451E20E04D4850F8240030F8B1
:10372000150010B909F1010901E04FF00009B14598
:1037300012D14FF0000808E0454850F8240005EB8E
:10374000080220F8126008F10108B045F4D342489D
:1037500050F824006843CAE76D1E002DDCDA4FF0F4
:10376000FF30C4E72DE9F04104460E4638480C30DE
:10377000005D38B936481438016820468847012072
:10378000BDE8F081334850F82400B04217D93248E0
:1037900050F82400B6FBF0F12D4850F8240030F822
:1037A0001120002507E00023294850F824004F1974
:1037B00020F817306D1C9542F5DB0020E0E7022071
:1037C000DEE770B505460C4604B970BD20480C38DC
:1037D00050F82500261A31462846FFF7C3FF00BFE0
:1037E000F3E770B504460E4631462046FFF76DFFFD
:1037F0000546681C08B9002070BD15480C3850F803
:1038000024002844F8E72DE9F04104460F46164607
:1038100031462046FFF759FF0546681C10B90020C5
:10382000BDE8F0810A490C3951F824104819324694
:103830003946FFF7FDFE39462046FFF7C2FF044830
:103840000C3850F824002844EAE70000F08301080F
:103850005400002008840108FC8301080146002070
:1038600002E0491C421CD0B20A78002AF9D1704704
:103870002DE9F04105460E4614460027F64800782B
:1038800020B1112020700020BDE8F08128780128A7
:1038900008D0022807D0032802D0042804D100E071
:1038A00000BF00BF00BF03E0012020700020EBE755
:1038B00000BF02F0FFFB0746686930603068FFF721
:1038C000CDFF8046384602F0F9FB002020704046CC
:1038D000DAE72DE9F04105460E4614460027DE489A
:1038E000007818B112202070BDE8F08128780128F6
:1038F00008D0022807D0032802D0042804D100E011
:1039000000BF00BF00BF02E001202070ECE700BF55
:1039100002F0D0FB07466E61384602F0CFFB002074
:10392000207000BFE0E77CB5002514E0694628461A
:1039300002F0DEF9064666B9C84850F8254044B1A1
:10394000012C06D0D4E9020100EB810060640198EB
:10395000A064681CC5B23F2DE8D97CBD002400BF1F
:1039600002E0282002F0CEFABD4800780028F8D006
:10397000BC4800686421B0FBF1F0BA490860084611
:10398000006828B90020B8490870FF2002F0F2F959
:1039900000BF02F08FFB0446B4480068B4490860D9
:1039A0000020B2490860204602F088FBB048006859
:1039B000AC490968B0FBF1F0C0F16400AA49087095
:1039C00002F0E1FBFFF7AFFF142002F09BFAE0E703
:1039D00000B587B0032000214022A64BCDE901327B
:1039E000CDE903104FF6FE703E23A24AFC32009050
:1039F000AFF2970001F095FF06AA9FA13E2002F0CA
:103A0000F9F807B000BD002400BF00BF02F052FB70
:103A1000044696480068401C94490860204602F01D
:103A20004DFB02F0AFFBF1E700B587B003200021AA
:103A30004022954BCDE90132CDE903104FF6FF70DE
:103A40003F23914AFC320090AFF2450001F069FF3C
:103A500006AA8EA13F2002F0CDF807B000BD04E019
:103A6000002200F8012B4A1E91B20029F8D17047BC
:103A700070B54FF4B4718948FFF7F1FF002411E0ED
:103A8000601C85B204EB4400844901EBC00305EBE4
:103A9000450001EBC006002018705E6080A05861F0
:103AA000601C84B20E2CEBD304EB44007B4901EB89
:103AB000C00300201870586079A058610846794901
:103AC000086070BD70B54FF4E7617748FFF7C7FF36
:103AD0004FF480716148FFF7C2FF002413E0601CBF
:103AE000C5B2C4EBC40000EB40006F4901EB80039A
:103AF000C5EBC50000EB400001EB80065E6168A0ED
:103B0000D864601CC4B2152CE9D3C4EBC40000EB2C
:103B10004000654901EB80030020586160A0D86433
:103B200000206249086060486149086070BD00215A
:103B3000604A1170002004E000215F4A1154411CCA
:103B4000C8B20828F8D300215C4A11705C4A117091
:103B50005C4A11605C4A1160704700205B49086054
:103B60003D4908705A4908705A4908705A49087006
:103B70005A4908603D4908603D4908603949086074
:103B800037490870704710B502F0F8FAFFF7E5FF03
:103B9000FFF7CDFFFFF796FFFFF76AFF00F0E8FEA3
:103BA00001F0D7FBFFF740FFFFF712FF02F0E7FA43
:103BB00010BD49480078012808D127480078FF281F
:103BC00004D225480078401C2349087070474449B6
:103BD000384A1278885C3849095C414A515C01EBEB
:103BE000C001374A1170704710B500243A48007878
:103BF000012830D102F05EFA04461748007820B15F
:103C000015480078401E1449087013480078F8B928
:103C10002F480078E0B9FFF7DAFF10482849097803
:103C200050F8210027490860254800782349097881
:103C300088420DD023480068806B401C21490968E8
:103C4000886326480068401C2449086002F052FA44
:103C5000204602F033FA10BD7D00002098C10120FB
:103C60007C00002074000020700000208C000020E8
:103C70007800002098BF012075432F4F532D4949EC
:103C8000205374617400000098C0012075432F4FC9
:103C9000532D49492049646C65000000E0BD0120B6
:103CA0003F0000006800002098C201209C00002016
:103CB0009400002081000020820000207F0000206E
:103CC000800000209800002090000020A800002024
:103CD0007E0000208B0000208A000020640000206D
:103CE0001484010810B50024FB480078012811D184
:103CF00002F0E0F90446F948007840B9F848007845
:103D0000FF2804D2F6480078401CF5490870204688
:103D100002F0D4F910BD10B5002402F0CBF904462E
:103D2000EE480078F8B9EE480078E0B9FFF74FFFA9
:103D3000EC48ED49097850F82100EC490860EA4860
:103D40000078EB49097888420DD0E8480068806B1C
:103D5000401CE64909688863E6480068401CE5495C
:103D6000086002F0C0F9204602F0A8F910BD10B5B5
:103D70000024D9480078012821D102F09BF904469B
:103D8000D7480078C0B1D6480078401ED4490870A2
:103D90000846007860B9D148007828B9204602F07A
:103DA0008DF9FFF7B8FF0AE0204602F087F906E038
:103DB000204602F083F902E0204602F07FF910BDB0
:103DC00010B5C548007890B9FFF701FFC6480078E4
:103DD000C7490870C348C449097850F82100C3494D
:103DE000086008460068C449086002F06AF910BD1E
:103DF00010B50024022002F085F802F05BF90446B9
:103E00000020BE490860204602F058F9142002F054
:103E100079F802F04FF90446B8480068B8490860DC
:103E20000120B8490870204602F048F910BD70B56D
:103E3000002602F080FA02F03DF90646B24800681A
:103E4000401CB1490860304602F038F9A2480078B9
:103E5000012853D1AD48007820B1012804D00228B0
:103E600009D103E001250BE0002509E0012501202F
:103E7000A649087004E001250020A449087000BF8D
:103E800000BF05B970BDA248046833E002F012F922
:103E90000646E06A50B3E06A401EE062E06A28BB72
:103EA00094F8300000F0370040B114F8300F00F003
:103EB000C800207001206070303C02E0002084F8CF
:103EC000310094F8300000F0080078B93434A0785C
:103ED0009049097808438F49087020788E49085C1A
:103EE0006178084314F834198B4A50546469304699
:103EF00002F0E4F894F832003F28C7D100BFC1E7D0
:103F000040F223107047704710B590F8342001F14B
:103F10000B039B5C90F83540A34301F10B04A354C1
:103F200023469B5C23B98B7A90F83640A3438B726F
:103F300010BD2DE9F04F05460F4690469946A87AE8
:103F400076490E5C05F10B00805D11F800B00BEBBB
:103F5000C60000F0FF0A634850F82A4000202034D1
:103F6000E0602760207C20EA0800207484F811902B
:103F7000207C203C00F0080068B994F836006549C0
:103F800009780843634908706348805D94F83510E8
:103F900008436149885529462046FFF7B5FF50463A
:103FA000BDE8F08F10B5544A1268D061524A1268C9
:103FB00092F8343000F10B02D25C4F4B1B6893F83F
:103FC00035301A434C4B1B6893F8344000F10B0317
:103FD0001A55827A484B1B6893F836301A4382721E
:103FE000454A126892F834104B4A525C424B1B68A7
:103FF00093F835309A43484B5A541A46525C42B9AA
:104000003D4A126892F83630424A12789A43414B40
:104010001A7010BD014600228A72002005E00023BC
:1040200001F10B021354421CD0B20828F7D3704799
:1040300005E011F8013B00F8013B531E9AB2002A3B
:10404000F7D170472DE9F84F05460F46904699463F
:10405000DDE90AAB0020009002F02CF80090304817
:104060000468002C7ED0183454F8040C2C490860E5
:10407000009802F023F844F8187CA57600202076FA
:104080006076606144F814BC44F80CAC44F8108CC1
:104090000C9824F8080C24F8069C0020E077E8101F
:1040A000207705F00700E076217F01208840A07787
:1040B000E17E01208840607700206060E060A060C1
:1040C0002062A0626062E0622063AFF22C40606315
:1040D000183C00262DE000008A0000207D00002012
:1040E0007E00002098C10120800000209800002060
:1040F0007F00002064000020900000208C00002041
:10410000740000207C000020A8000020A0000020F7
:104110009C000020810000208200002014840108FF
:1041200094000020002104F1500040F82610701C7B
:10413000C6B2002EF6D0204602F0FCF8204602F06F
:104140001FF801F0B7FF0090184840F825401848C4
:10415000006860610020A0611548006820B1144823
:10416000006800E01DE08461114804603434A078E8
:104170001049097808430F49087020780E49085CF7
:104180006178084314F834190B4A50540B480078EE
:10419000401C0A490870009801F090FF0020BDE81B
:1041A000F88F009801F08AFF4220F8E798C10120BB
:1041B0009C00002081000020820000208B00002055
:1041C0002DE9F05F04460F4691461E464FF0000B66
:1041D0002078052804D0012030700020BDE8F09F31
:1041E00009F0800ABAF1000F04D029F080094FF0DD
:1041F000010801E04FF000080020307001F05AFF84
:104200008346B9F1000F2CD0B9F1010F3BD0B9F1C1
:10421000020F03D0B9F1030F46D111E0208900EA63
:104220000705BD4206D1B8F1010F05D12089A84389
:10423000208101E070203070584601F03FFF3AE0E5
:10424000208900EA070535B1B8F1010F05D12089B1
:10425000A843208101E070203070584601F02EFF05
:1042600029E0208927EA0005BD4206D1B8F1010FF7
:1042700005D120892843208101E070203070584604
:1042800001F01CFF17E0208927EA000535B1B8F1DD
:10429000010F05D120892843208101E07020307072
:1042A000584601F00BFF06E0584601F007FF0025D5
:1042B0006F20307000BF00BF28468FE72DE9F04126
:1042C00006460D460027FA48007820B110202870D5
:1042D0000020BDE8F08101F0EDFE0746F5480468D6
:1042E00084B100684068F349086005202070268189
:1042F00000206060F0A0E060384601F0DFFE0020A2
:10430000287004E0384601F0D9FE7220287020465B
:10431000DFE730B501464A6808682AB9CC686060B2
:1043200028B10025456002E0106000B142608B6852
:1043300000255D6230BDF0B506460F46B46800202A
:10434000283460602780207A00F0DF00207200208F
:104350006072207A283C88B93434A078D74909782B
:104360000843D64908702078D549085C617808432D
:1043700014F83419D24A5054012500E00025304683
:10438000FFF7C7FF2846F0BD2DE9F04704468946F0
:1043900015464FF0000AC648007820B10F2028705B
:1043A0002046BDE8F0872078052803D0012028703A
:1043B0002046F6E701F07EFE8246606808B10127DC
:1043C00000E00027B9F1000F03D0B9F1010F3CD193
:1043D00019E08FB9B8A0E06000202070B5480068EF
:1043E000606000202081B3480460504601F066FE02
:1043F00000202870002605E0504601F05FFE4920AD
:104400002870264628E0D4F8048005E000214046C4
:10441000FFF791FFD8F80080B8F1000FF6D1A6A001
:10442000E06000202070A3480068606000202081C8
:10443000A0480460504601F041FE012F01D1FFF772
:104440006AFC00202870002606E0504601F036FE87
:1044500007202870264600BF00BF3046A1E72DE99F
:10446000F04105460E46144600279148007820B1D9
:10447000112020700020BDE8F08101F01BFE0746EE
:104480002878052806D0384601F018FE0120207053
:104490000020F0E7E86830603068FFF7DFF9804619
:1044A000384601F00BFE002020704046E3E72DE97E
:1044B000F04105460E46144600277D48007818B1A5
:1044C00012202070BDE8F08101F0F4FD0746287845
:1044D000052805D0384601F0F1FD01202070F1E7F4
:1044E000EE60384601F0EAFD0020207000BFE9E7E9
:1044F000F0B51446059E734F3F6897F8307047F04B
:104500002007DFF8C0C1DCF800C08CF8307000274D
:10451000DFF8B0C1DCF800C08CF83170694F3F683B
:10452000FE62684F3F6879620C828B74654F3F680A
:104530008F6047680F6000274F60C860456805B10D
:10454000696041605F4F3F6897F834205C4FBF5C03
:10455000DFF870C1DCF800C09CF835C027EA0C0712
:10456000DFF85CC10CF802706746BF5C5FB9554F5D
:104570003F6897F836C0514F3F7827EA0C07DFF8BD
:104580003CC18CF80070F0BD2DE9F04F89B00546B4
:104590000F4691469A46129E0020029044480078A9
:1045A00028B102203070002009B0BDE8F08F4648E5
:1045B000007818B10D2030700020F5E72878052824
:1045C00003D0012030700020EEE709F0800BBBF132
:1045D000000F04D009F07F094FF0010801E04FF00F
:1045E000000801F067FD0290B9F1000F4AD0B9F15F
:1045F000010F78D0B9F1020F03D0B9F1030F71D1D7
:1046000020E0288900EA0704BC420FD1B8F1010F6D
:1046100002D12889A04328812A480068048502988D
:1046200001F04CFD002030702046BDE74B463A4675
:1046300004A92846CDF800A0FFF75AFF029801F020
:104640003DFD78E0288900EA07047CB1B8F1010F4C
:1046500002D12889A04328811A480068048502985D
:1046600001F02CFD0020307020469DE74B463A4675
:1046700004A92846CDF800A0FFF73AFF029801F000
:104680001DFD58E0288927EA0004BC421ED1B8F17C
:10469000010F02D12889204328810A480068048537
:1046A000029801F00BFD0020307020467CE71AE0F4
:1046B0007D0000206C0000203F00000081000020F1
:1046C00082000020900000207E0000204B463A46E9
:1046D00004A92846CDF800A0FFF70AFF029801F0D0
:1046E000EDFC28E01FE0288927EA00047CB1B8F13E
:1046F000010F02D1288920432881B1480068048530
:10470000029801F0DBFC0020307020464CE74B465D
:104710003A4604A92846CDF800A0FFF7E9FE029822
:1047200001F0CCFC07E0029801F0C8FC00246F20E7
:104730003070204638E700BFFFF7EDFA01F0BAFC11
:1047400002909F48006890F8310020B39C480068B0
:1047500090F83100039000209949096881F83100F0
:1047600004A8FFF7D6FD00209549096881F83000BC
:10477000029801F0A3FC00240398012805D0022828
:1047800002D10E20307003E000BF0A20307000BF5D
:1047900000BF204608E78A480068048DB8F1010F81
:1047A0001ED1B9F1000F0ED0B9F1010F0CD0B9F143
:1047B000020F03D0B9F1030F0AD100E000BF28892E
:1047C000A04328810BE000BF28892043288106E010
:1047D000029801F073FC6F2030700020E4E600BF07
:1047E000029801F06BFC002030702046DCE670B5CA
:1047F000002501F05FFC054671480068048D2846DD
:1048000001F05CFC204670BD2DE9FC5F0446894642
:1048100092461E46002000902078052804D00120F2
:1048200030700020BDE8FC9F01F044FC0090BAF11C
:10483000000F03D0BAF1010F0AD104E0208920EA69
:10484000090020810BE0208940EA0900208106E070
:10485000009801F033FC712030700020E2E700BFC7
:104860004FF0000B656855E0A87C40B3012838D0B4
:10487000022802D0032844D111E02089298A00EAC5
:104880000107288AB84209D139462846FFF753FD67
:104890008046B8F1010F01D14FF0010B38E02089BB
:1048A000298A00EA01074FB139462846FFF743FD40
:1048B0008046B8F1010F01D14FF0010B28E0288AA2
:1048C000218920EA0107288AB84209D139462846B9
:1048D000FFF731FD8046B8F1010F01D14FF0010B18
:1048E00016E0288A218920EA01074FB13946284677
:1048F000FFF721FD8046B8F1010F01D14FF0010B08
:1049000006E0009801F0DAFB6F203070002089E7A4
:1049100000BF2D68002DA7D1009801F0CFFBBBF19F
:10492000010F01D1FFF7F7F901F0C4FB00902089D6
:104930000190009801F0C2FB00203070019871E7EF
:104940002DE9F04104460D4600272078052804D0C3
:10495000012028700020BDE8F08101F0ABFB074684
:104960002689384601F0AAFB002028703046F2E77D
:104970002DE9F04150211348FFF771F800250EE0B2
:10498000681C86B20F4800EB051400EB06170020E8
:1049900020706760AFF2E020E060681C85B2042DF3
:1049A000EED3084800EB0514002020706060AFF2E1
:1049B000F820E060034804490860BDE8F081000089
:1049C0009000002048BF01206C00002070B5044614
:1049D00000262078012801D0002070BD01F06AFB7C
:1049E0000646656800206060304601F067FB284697
:1049F000F3E770B505460026E748007808B10020C7
:104A000070BD01F057FB0646E4480468006820B119
:104A1000E24800684068E1490860304601F04EFB1A
:104A20004CB101202070002020816560DCA0606115
:104A30002046FFF7EFFA2046E2E72DE9F04704466B
:104A4000884615464FF000092078012804D001203F
:104A500028702046BDE8F087CF48007818B10F20B5
:104A600028702046F6E701F025FB8146A07A08B1C0
:104A7000012700E00027B8F1000F03D0B8F1010FC3
:104A80003AD119E08FB9C6A0606100202070C348F8
:104A90000068606000202081C0480460484601F042
:104AA0000DFB00202870002605E0484601F006FBBB
:104AB00049202870264626E005E0002302221946F8
:104AC0002046FFF736FAA07A0028F6D1B4A060613C
:104AD00000202070B1480068606000202081AF484D
:104AE0000460484601F0EAFA012F01D1FFF713F9FB
:104AF00000202870002606E0484601F0DFFA072073
:104B00002870264600BF00BF3046A3E72DE9F041DC
:104B100005460F4614464FF000082878012804D0B7
:104B2000012020700020BDE8F0819B48007818B17A
:104B3000022020700020F6E79A48007818B10D2076
:104B400020700020EFE701F0B5FA80466E6846B1AC
:104B500000206860404601F0B1FA00202070304625
:104B6000E1E79148006890F8300040F002008E497B
:104B7000096881F8300000208B49096881F831000C
:104B800089480068C7622846FFF70CFA404601F0E2
:104B900095FAFFF7C0F801F08DFA80468248006868
:104BA00090F8310020B101280DD002280AD105E08B
:104BB0007D480068066A002020700DE000260E2067
:104BC000207009E000BF294677480068FFF79CF98C
:104BD00000260A20207000BF00BF0020724909682B
:104BE00081F830007049096881F831006E49096820
:104BF000C8616D4909680862404601F05FFA3046B5
:104C000091E72DE9F04104460F4615464FF00008A4
:104C10002078012804D0012028700020BDE8F08110
:104C200001F048FA8046A07A20B300267FB1012F18
:104C30000CD107E002231A4600212046FFF779F93C
:104C4000701CC6B2A07A0028F4D109E000BF02238C
:104C50001A4600212046FFF76CF9701CC6B200BF4F
:104C600000BF404601F02AFAFFF755F80E202870E1
:104C70003046D3E7404601F021FA0020287000BFFB
:104C8000CCE770B504460D4600262078012801D0F7
:104C9000012070BD01F00EFA0646A07A60B1002333
:104CA000022229462046FFF744F9304601F006FA71
:104CB000FFF731F80020ECE7606820B1304601F0E2
:104CC000FDF91420E5E76560304601F0F7F90020B2
:104CD000DFE72DE9F04104460E461546002720780F
:104CE000012802D00120BDE8F08101F0E3F9074678
:104CF000A07AE8B105F0010050B105E000230222DE
:104D000031462046FFF715F9A07A0028F6D105E0D4
:104D10000023022231462046FFF70BF9384601F006
:104D2000CDF905F0040008B9FEF7F5FF0020DAE739
:104D3000606820B1384601F0C1F91420D3E76660FD
:104D4000384601F0BBF90020CDE72DE9F0470446D5
:104D50000D464FF000092078012802D00120BDE85F
:104D6000F08701F0A7F98146A07A287304F10B07B8
:104D700005F10408002605E017F8010B08F8010BFF
:104D8000701CC6B2082EF7D360682860484601F050
:104D900095F90020E3E700007D0000206800002076
:104DA0003F0000007E000020900000202DE9F0412F
:104DB00006460D464FF000083078022804D0012046
:104DC00028700020BDE8F08101F074F98046746815
:104DD000E08A78B12169081D20610F68E08A401ED1
:104DE000E082A1682069884201D1606820610020CA
:104DF000287002E01F2028700027404601F05EF96D
:104E00003846DFE72DE9F04106460F464FF000082F
:104E1000FA48007810B10020BDE8F08101F04AF9AD
:104E20008046F7480468006820B1F548006840688B
:104E3000F3490860404601F041F9FCB101F03AF94C
:104E40008046F0480568D5B100680068ED49086003
:104E5000404601F033F96E6006EB8700A860EE6013
:104E60002E61AF820020E882022020700020208185
:104E70006560E5A060612046FFF7CCF808E0E048F7
:104E800000686060DE480460404601F017F90024C5
:104E90002046C1E72DE9F0470446894615464FF004
:104EA000000A2078022804D0012028702046BDE89E
:104EB000F087D248007818B10F2028702046F6E716
:104EC00001F0F8F88246A07A10B14FF0010801E035
:104ED0004FF00008B9F1000F03D0B9F1010F49D12B
:104EE00021E0B8F1000F17D1C7A060616668C5481E
:104EF00000683060C348066000202070C048006829
:104F0000606000202081BE480460504601F0D6F861
:104F100000202870002705E0504601F0CFF8492016
:104F2000287027462DE005E000230422194620467C
:104F3000FEF7FFFFA07A0028F6D1B3A06061666893
:104F4000B04800683060AF48066000202070AC4870
:104F50000068606000202081A9480460504601F08C
:104F6000ADF8B8F1010F01D1FEF7D5FE0020287091
:104F7000002706E0504601F0A1F8072028702746D8
:104F800000BF00BF384692E770B50546002601F025
:104F900091F806466C686068E060606820610020F7
:104FA000E082304601F08AF8002070BD2DE9F0471C
:104FB0000746884615464FF000093878022804D085
:104FC000012028700020BDE8F0878C48007818B1D7
:104FD000022028700020F6E78C48007818B10D20D8
:104FE00028700020EFE701F065F881467C68E08AD0
:104FF00098B12169081D20610E68E08A401EE08298
:10500000A1682069884201D160682061484601F0AA
:1050100055F8002028703046D5E77D48006890F8A4
:10502000300040F004007A49096881F8300000201F
:105030007749096881F8310075480068C0F82C800C
:105040003846FEF7AFFF484601F038F8FEF763FE3A
:1050500001F030F881466E48006890F8310020B1C8
:1050600001280DD002280AD105E069480068066AC7
:10507000002028700DE000260E20287009E000BFF7
:10508000394663480068FEF73FFF00260A20287073
:1050900000BF00BF00205E49096881F830005C490C
:1050A000096881F831005A490968C8615849096896
:1050B0000862484601F002F8304684E72DE9F041E5
:1050C00004460F4615464FF000082078022804D009
:1050D000012028700020BDE8F08100F0EBFF804641
:1050E000A07A20B300267FB1012F0CD107E0022364
:1050F000042200212046FEF71CFF701CC6B2A07AD5
:105100000028F4D109E000BF022304220021204638
:10511000FEF70FFF701CC6B200BF00BF404600F094
:10512000CDFFFEF7F8FD0E2028703046D3E740464D
:1051300000F0C4FF0020287000BFCCE72DE9F0414B
:1051400005460E4600272878022802D00120BDE837
:10515000F08100F0AFFF0746A87A60B10023042277
:1051600031462846FEF7E5FE384600F0A7FFFEF779
:10517000D2FD0020EBE76C68E08AA18A884204DB5C
:10518000384600F09BFF1E20E1E7E168081DE06063
:105190000E60E08A401CE082D4E90210884201D10E
:1051A0006068E060384600F089FF0020CFE72DE915
:1051B000F04105460E4600272878022802D001203B
:1051C000BDE8F08100F076FF0746A87A60B10023C1
:1051D000042231462846FEF7ACFE384600F06EFF4A
:1051E000FEF799FD0020EBE76C68E08AA18A88420F
:1051F00010DB384600F062FF1E20E1E77D00002052
:1052000068000020A40000203F0000007E00002075
:105210009000002061682069884201D1A068206167
:105220002069001F206120690660E08A401CE0823E
:10523000384600F043FF0020C2E72DE9F041054663
:105240000F4616464FF000082878022802D00120A9
:10525000BDE8F08100F02EFF8046A87AE8B106F0A4
:10526000010050B105E00023042239462846FEF72C
:1052700060FEA87A0028F6D105E000230422394612
:105280002846FEF756FE404600F018FF06F00400E0
:1052900008B9FEF740FD0020DAE76C68E08AA18AD1
:1052A000884204DB404600F009FF1E20D0E706F0EC
:1052B000020058B161682069884201D1A06820616C
:1052C0002069001F20612069076009E0E168081D6E
:1052D000E0600F60D4E90210884201D16068E060AC
:1052E000E08A401CE082404600F0E8FE0020AFE784
:1052F0002DE9F04705460C464FF0000A28780228B1
:1053000002D00120BDE8F08700F0D4FE8246A87AE2
:10531000207405F10B0804F10809002705E018F8CE
:10532000010B09F8010B781CC7B2082FF7D36E6880
:10533000F08A18B130690068206001E00020206028
:10534000F08AA080B08AE080504600F0B7FE0020CE
:10535000D8E72DE9F04178211048FEF780FB0024C2
:105360000DE0601C86B204EB44000C4901EBC00563
:1053700006EB460001EBC0072F60601C84B2042CD2
:10538000EFD304EB4400054901EBC0050020286081
:10539000084603490860BDE8F0810000D0C901203B
:1053A000A400002070B5044600262078032801D010
:1053B000002070BD00F07EFE0646258915B12089CB
:1053C000401E2081304600F079FE2846F1E770B596
:1053D00005460026D548007808B1002070BD00F0D1
:1053E00069FE0646D2480468006820B1D0480068CB
:1053F0004068CF490860304600F060FE4CB10320A1
:105400002070258100206060CAA060612046FEF700
:1054100001FE2046E2E72DE9F0470446884615469E
:105420004FF000092078032804D00120287020467E
:10543000BDE8F087BD48007818B10F2028702046DD
:10544000F6E700F037FE8146A07A08B1012700E0B8
:105450000027B8F1000F03D0B8F1010F3AD119E0DD
:105460008FB9B4A0606100202070B148006860600E
:1054700000202081AE480460484600F01FFE002056
:105480002870002605E0484600F018FE49202870E4
:10549000264626E005E00023012219462046FEF7B5
:1054A00048FDA07A0028F6D1A2A0606100202070FB
:1054B0009F4800686060002020819D480460484645
:1054C00000F0FCFD012F01D1FEF725FC0020287023
:1054D000002606E0484600F0F1FD07202870264629
:1054E00000BF00BF3046A3E72DE9F04105460E4658
:1054F000144600272878032803D001202070BDE837
:10550000F0818A48007810B102202070F7E78A48BD
:10551000007810B10D202070F1E700F0CBFD0746B8
:10552000288940B12889401E2881384600F0C6FDF0
:1055300000202070E3E78148006890F8300040F0D8
:1055400001007E49096881F8300000207B49096824
:1055500081F8310079480068C6622846FEF722FDCE
:10556000384600F0ABFDFEF7D6FB00F0A3FD074682
:105570007248006890F8310020B1012809D0022853
:1055800006D102E0002020700BE00E20207008E021
:1055900000BF294669480068FEF7B6FC0A20207063
:1055A00000BF00BF00206549096881F830006349E9
:1055B000096881F8310061490968C861384600F01E
:1055C0007DFD00BF9BE72DE9F04104460F461546DF
:1055D0004FF000082078032804D001202870002014
:1055E000BDE8F08100F066FD8046A07A20B3002679
:1055F0007FB1012F0CD107E00223012200212046B8
:10560000FEF797FC701CC6B2A07A0028F4D109E01E
:1056100000BF0223012200212046FEF78AFC701CF5
:10562000C6B200BF00BF404600F048FDFEF773FB66
:105630000E2028703046D3E7404600F03FFD0020A2
:10564000287000BFCCE770B50446002520780328F9
:1056500001D0012070BD00F02DFD0546A07A60B19B
:105660000023012219462046FEF763FC284600F07D
:1056700025FDFEF750FB0020ECE720894FF6FF7177
:10568000884207D22089401C2081284600F016FD60
:105690000020DFE7284600F011FD3320DAE72DE98E
:1056A000F04704460D464FF000092078032802D049
:1056B0000120BDE8F08700F0FDFC8146A07AA872C9
:1056C00004F10B0705F10208002605E017F8010BAD
:1056D00008F8010B701CC6B2082EF7D32089288069
:1056E000484600F0EBFC0020E3E72DE9F0410446DA
:1056F0000E46154600272078032803D00120287085
:10570000BDE8F08100F0D6FC074600202870208913
:1057100008B1268105E0A07A08B9268101E0492078
:105720002870384600F0CAFC00BFE9E77D00002081
:10573000680000203F0000007E0000209000002054
:105740002DE9FF5F814688460020009000F0B2FC02
:105750000090F94850F8280030B1009800F0AEFCF5
:10576000282004B0BDE8F09FB9F1FF0F03D1F34842
:10577000006890F83290F04850F8294024B9009819
:1057800000F09CFC2920ECE7012C04D1009800F0EB
:1057900095FC4320E5E74FEAE80708F0070003908F
:1057A0000120B84000F0FF0A01210398814001F078
:1057B000FF0B0020E04941F82900084640F8284046
:1057C00014F8346FA07802906078343C0190DC4883
:1057D000815D01980140D1B1D948805D019988432C
:1057E000D74988550846805D28B9D648007802997F
:1057F0008843D4490870D348007840EA0A00D14968
:105800000870CF48C05D40EA0B00CD49C855E56936
:10581000D5B105F10B00805D0199884305F10B01BD
:1058200088550846805D18B9A87A02998843A872FD
:10583000A87A40EA0A00A87205F10B00C05D40EAB0
:105840000B0005F10B01C85584F8328084F83470E0
:10585000039884F8330084F836A084F835B00098B3
:1058600000F02CFCB8480078012801D1FEF753FA6B
:10587000002076E72DE9FE4F06460F4690461C466F
:105880004FF0000900F016FC8146B048007828B1BE
:10589000484600F013FC3C20BDE8FE8FA64850F8B7
:1058A000240060BB0120A44941F82400484600F0D0
:1058B00005FC002342463946304600F065FC82462E
:1058C0000020009001900346024651460290204677
:1058D000FEF7B8FB054635B99B48007801280CD186
:1058E000FEF719FA09E000F0E5FB81460020924935
:1058F00041F82400484600F0E1FB2846CCE7484642
:1059000000F0DCFB2820C7E702F0010343B102F0FE
:1059100002032BB102E0491E002308C00029FAD17E
:1059200070472DE9F04F85B081468A4693461C4664
:10593000DDE90F78129D0020039000F0BBFB03907F
:105940008248007830B1039800F0B8FB3C2005B0E5
:10595000BDE8F08F784850F8240088BB01207649D4
:1059600041F82400039800F0A9FB2A464146384636
:10597000FFF7CAFF2B465A465146484600F004FC42
:1059800004901198CDE9008002953A4620460E9B7E
:105990000499FEF757FB064636B96B480078012894
:1059A0000CD1FEF7B8F909E000F084FB0390002069
:1059B000614941F82400039800F080FB3046C6E7B7
:1059C000FFE7039800F07AFB2820C0E72DE9F041BB
:1059D000054600275D48007810B14020BDE8F08101
:1059E0003F2D01D13E20F9E700F064FB0746FF2D73
:1059F00003D15248006890F832504F4850F8254083
:105A000024B9384600F05AFB4320E7E7012C04D1C3
:105A1000384600F053FB3D20E0E714F8340F4849C6
:105A2000085C617888432178454A505414F8340959
:105A30001146085C30B994F8361042480078884323
:105A400040490870E06918B12046E169FEF75CFA48
:105A5000666A16B13046FEF75CFC0020E06284F80E
:105A6000300084F831003A480078FF2804D23848E2
:105A70000078401C36490870384600F01FFBFEF7DE
:105A800042FA00F017FB07463148007820B1304851
:105A90000078401E2E490870204600F072FB2D4809
:105AA0000078401E2B4908700020234941F825004A
:105AB000A06930B900206169886127496069086080
:105AC00005E0D4E905014861D4E90510886123485F
:105AD000006860612148046021A0E064384600F05D
